:020000040000FA
:100000000C9458000C9480000C9480000C94800098
:100010000C9480000C9480000C9480000C94800060
:100020000C9480000C9480000C9480000C94800050
:100030000C9480000C9480000C9480000C94800040
:100040000C94AE070C9480000C947C070C9456071B
:100050000C9480000C9480000C9480000C94800020
:100060000C9480000C948000000000002300260007
:10007000290004040404040404040202020202022B
:10008000030303030303010204081020408001025C
:1000900004081020010204081020000000080002DB
:1000A0000100000304070000000000000000F80742
:1000B00011241FBECFEFD8E0DEBFCDBF11E0A0E01E
:1000C000B1E0E0ECF6E102C005900D92A631B10777
:1000D000D9F721E0A6E1B1E001C01D92A63FB20729
:1000E000E1F710E0C8E5D0E004C02197FE010E94CE
:1000F000580BC735D107C9F70E9465080C945E0BF1
:100100000C940000AF92BF92CF92DF92EF92FF92D9
:100110000F931F93CF93DF936C017B018B01040F2F
:10012000151FEB015E01AE18BF08C017D10759F0CB
:100130006991D601ED91FC910190F081E02DC6010D
:100140000995892B79F7C501DF91CF911F910F9107
:10015000FF90EF90DF90CF90BF90AF900895FC019B
:10016000538D448D252F30E0842F90E0821B930B1C
:10017000541710F0CF96089501970895FC01918DC2
:10018000828D981761F0A28DAE0FBF2FB11D5D96C5
:100190008C91928D9F5F9F73928F90E008958FEF67
:1001A0009FEF0895FC01918D828D981731F0828D1B
:1001B000E80FF11D858D90E008958FEF9FEF089572
:1001C000FC01918D228D892F90E0805C9F4F821BD6
:1001D00091098F739927089585E291E00E94E000CC
:1001E00021E0892B09F420E0822F089580E090E03F
:1001F000892B29F00E94EC0081110C9400000895D5
:10020000FC01A48DA80FB92FB11DA35ABF4F2C918B
:10021000848D90E001968F739927848FA689B78982
:100220002C93A089B1898C91837080648C93938D79
:10023000848D981306C00288F389E02D80818F7D1C
:1002400080830895EF92FF920F931F93CF93DF93D4
:10025000EC0181E0888F9B8D8C8D98131AC0E88902
:10026000F989808185FF15C09FB7F894EE89FF89D1
:100270006083E889F98980818370806480839FBF6F
:1002800081E090E0DF91CF911F910F91FF90EF906F
:100290000895F62E0B8D10E00F5F1F4F0F7311277F
:1002A000E02E8C8D8E110CC00FB607FCFACFE889BA
:1002B000F989808185FFF5CFCE010E940001F1CF41
:1002C000EB8DEC0FFD2FF11DE35AFF4FF0829FB72E
:1002D000F8940B8FEA89FB8980818062CFCFCF931E
:1002E000DF93EC01888D8823B9F0AA89BB89E8895E
:1002F000F9898C9185FD03C0808186FD0DC00FB604
:1003000007FCF7CF8C9185FFF2CF808185FFEDCF81
:10031000CE010E940001E9CFDF91CF910895806462
:1003200080937C0080917A00806480937A00809131
:100330007A0086FDFCCF8091780090917900089535
:100340003FB7F8948091170190911801A09119017D
:10035000B0911A0126B5A89B05C02F3F19F0019650
:10036000A11DB11D3FBFBA2FA92F982F8827BC010F
:10037000CD01620F711D811D911D42E0660F771F37
:10038000881F991F4A95D1F708958F929F92AF9237
:10039000BF92CF92DF92EF92FF926B017C010E949D
:1003A000A0014B015C01C114D104E104F104B9F0D6
:1003B0000E94A001681979098A099B09683E734067
:1003C0008105910580F321E0C21AD108E108F10806
:1003D00088EE880E83E0981EA11CB11CE4CFFF902C
:1003E000EF90DF90CF90BF90AF909F908F90089547
:1003F000EF92FF920F931F93CF93DF93EC016983EA
:100400004A8318820EE110E07C0184E0E80EF11CC2
:1004100044E050E0BE0185E291E00E94820044E0A9
:1004200050E0B70185E291E00E948200015011097D
:1004300079F7188219821A821B8264E670E080E0E4
:1004400090E0DF91CF911F910F91FF90EF900C946E
:10045000C501CF93DF93EC01688344E050E0BC0119
:1004600085E291E00E948200BE016C5F7F4F44E014
:1004700050E085E291E00E948200188219821A827F
:100480001B8264EF71E080E090E0DF91CF910C94EB
:10049000C501EF92FF920F931F93CF93DF93EC016F
:1004A00088E889838A83188202E310E07E0184E071
:1004B000E80EF11C44E050E0BE0185E291E00E94AC
:1004C000820044E050E0B70185E291E00E948200A2
:1004D0000150110979F7188219821A821B82DF9163
:1004E000CF911F910F91FF90EF90089582EC91E0D2
:1004F0000E94490264E670E080E090E00E94C5013D
:100500004CE36EE682EC91E00E94F80161E082EC3F
:1005100091E00E94290261E082EC91E00E942902B0
:1005200061E082EC91E00E94290261E082EC91E0BE
:100530000E94290261E082EC91E00E94290261E0C0
:1005400082EC91E00E94290261E082EC91E00E943D
:10055000290261E082EC91E00E94290261E082ECD4
:1005600091E00E94290261E082EC91E00E94290260
:1005700061E082EC91E00E94290261E082EC91E06E
:100580000E94290260ED77E080E090E00E94C501C2
:1005900082EC91E00E94490268EE73E080E090E016
:1005A0000E94C50143E36BE682EC91E00E94F801F2
:1005B00060ED77E080E090E00E94C50161E082ECB0
:1005C00091E00E94290282EC91E00E94490268EECB
:1005D00073E080E090E00E94C50141E263E482ECB8
:1005E00091E00E94F80161E082EC91E00E94290212
:1005F00082EC91E00E94490268EE73E080E090E0B6
:100600000E94C50141E267E482EC91E00E94F8019A
:1006100061E082EC91E00E94290282EC91E00E946C
:10062000490268E97AE380E090E00E94C50168EE43
:1006300073E080E090E00E94C5014DE367E682EC44
:1006400091E00E94F80168EE73E080E090E00E9483
:10065000C50161E082EC91E00E94290282EC91E008
:100660000E94490268EE73E080E090E00E94C501BC
:100670004DE36EE682EC91E00E94F80168EE73E0D3
:1006800080E090E00E94C50161E082EC91E00E9470
:10069000290282EC91E00E94490268EE73E080E05A
:1006A00090E00E94C50144E063E782EC91E00E9483
:1006B000F80168EE73E080E090E00E94C50161E01F
:1006C00082EC91E00C94290282EC91E00E944902B4
:1006D00043E060E082EC91E00E94F80164E082EC8B
:1006E00091E00E94290264E082EC91E00C942902DE
:1006F0000F931F93CF93DF93CDB7DEB728970FB635
:10070000F894DEBF0FBECDBF082F1D821E821F8250
:10071000188619821A821B821C82CE0101960E94C1
:10072000490268EE73E080E090E00E94C5014BE072
:100730006EE6CE0101960E94F80164E670E080E06A
:1007400090E00E94C50161E0CE0101960E9429025D
:1007500061E0CE0101960E942902CE0101960E941D
:10076000490268EE73E080E090E00E94C50142E13A
:100770006FE0CE0101960E94F80164E670E080E02F
:1007800090E00E94C50161E0CE0101960E9429021D
:10079000CE0101960E94490268EE73E080E090E08D
:1007A0000E94C501102F110F100F46E1410F6FE09D
:1007B000CE0101960E94F8010E949D0A24EF31E0CB
:1007C00040E050E00E94F50A62517D4F8F4F9F4FED
:1007D0000E94C50161E0CE0101960E942902CE016E
:1007E00001960E94490268EE73E080E090E00E946A
:1007F000C5014DE36EE6CE0101960E94F80168EE58
:1008000073E080E090E00E94C50161E0CE010196B6
:100810000E942902CE0101960E94490268EE73E00F
:1008200080E090E00E94C50146E26EE3CE010196B1
:100830000E94F80162EE74E080E090E00E94C50141
:1008400061E0CE0101960E942902CE0101960E942C
:10085000490268EE73E080E090E00E94C5014BE041
:100860006EE6CE0101960E94F80164E670E080E039
:1008700090E00E94C50161E0CE0101960E9429022C
:10088000CE0101960E94490268EE73E080E090E09C
:100890000E94C50144E26BE0CE0101960E94F8017E
:1008A00068EC70E080E090E00E94C50161E0CE015C
:1008B00001960E942902CE0101960E94490268EE2B
:1008C00073E080E090E00E94C50147E2410F6FE0D5
:1008D000CE0101960E94F80168EE73E080E090E09E
:1008E0000E94C50161E0CE0101960E942902CE015D
:1008F00001960E94490268EE73E080E090E00E9459
:10090000C50143E261E4CE0101960E94F80162EE66
:1009100074E080E090E00E94C50161E0CE010196A4
:100920000E94290268EA71E680E090E00E94C50119
:10093000CE0101960E94490268EE73E080E090E0EB
:100940000E94C5014EE26FE6CE0101960E94F801B9
:1009500062EE74E080E090E00E94C50161E0CE01AB
:1009600001960E942902CE0101960E944902289612
:100970000FB6F894DEBF0FBECDBFDF91CF911F91B0
:100980000F9108950F931F93CF93DF93CDB7DEB7E9
:1009900028970FB6F894DEBF0FBECDBF082F1D827B
:1009A0001E821F82188619821A821B821C82CE0127
:1009B00001960E94490268EE73E080E090E00E9498
:1009C000C5014BE06EE6CE0101960E94F80164E697
:1009D00070E080E090E00E94C50161E0CE010196E8
:1009E0000E94290261E0CE0101960E942902CE01F7
:1009F00001960E94490268EE73E080E090E00E9458
:100A0000C50142E16FE0CE0101960E94F80164E663
:100A100070E080E090E00E94C50161E0CE010196A7
:100A20000E942902CE0101960E94490268EE73E0FD
:100A300080E090E00E94C501102F110F100F46E1D9
:100A4000410F6FE0CE0101960E94F8010E949D0ABD
:100A500024EF31E040E050E00E94F50A62517D4F02
:100A60008F4F9F4F0E94C50161E0CE0101960E9409
:100A70002902CE0101960E94490268EE73E080E0EF
:100A800090E00E94C5014DE36EE6CE0101960E9402
:100A9000F80168EE73E080E090E00E94C50161E03B
:100AA000CE0101960E942902CE0101960E944902C0
:100AB00068EE73E080E090E00E94C50146E26EE3DC
:100AC000CE0101960E94F80162EE74E080E090E0B1
:100AD0000E94C50161E0CE0101960E942902CE016B
:100AE00001960E94490268EE73E080E090E00E9467
:100AF000C5014BE06EE6CE0101960E94F80164E666
:100B000070E080E090E00E94C50161E0CE010196B6
:100B10000E942902CE0101960E94490268EE73E00C
:100B200080E090E00E94C50144E26BE0CE010196B6
:100B30000E94F80168EC70E080E090E00E94C5013E
:100B400061E0CE0101960E942902CE0101960E9429
:100B5000490268EE73E080E090E00E94C50147E240
:100B6000410F6FE0CE0101960E94F80168EE73E03C
:100B700080E090E00E94C50161E0CE0101960E94F4
:100B80002902CE0101960E94490268EE73E080E0DE
:100B900090E00E94C50143E266E5CE0101960E9405
:100BA000F80162EE74E080E090E00E94C50161E02F
:100BB000CE0101960E94290268E97AE380E090E084
:100BC0000E94C501CE0101960E94490268EE73E0C1
:100BD00080E090E00E94C5014EE26FE6CE010196F2
:100BE0000E94F80162EE74E080E090E00E94C5018E
:100BF00061E0CE0101960E942902CE0101960E9479
:100C0000490228960FB6F894DEBF0FBECDBFDF9124
:100C1000CF911F910F9108950F931F93CF93DF935F
:100C2000CDB7DEB728970FB6F894DEBF0FBECDBFA5
:100C3000082F1D821E821F82188619821A821B822B
:100C40001C82CE0101960E94490268EE73E080E0AA
:100C500090E00E94C5014BE06EE6CE0101960E9435
:100C6000F80164E670E080E090E00E94C50161E078
:100C7000CE0101960E94290261E0CE0101960E94F8
:100C80002902CE0101960E94490268EE73E080E0DD
:100C900090E00E94C50142E16FE0CE0101960E9402
:100CA000F80164E670E080E090E00E94C50161E038
:100CB000CE0101960E942902CE0101960E944902AE
:100CC00068EE73E080E090E00E94C501102F110FE4
:100CD000100F46E1410F6FE0CE0101960E94F8012E
:100CE0000E949D0A24EF31E040E050E00E94F50AA6
:100CF00062517D4F8F4F9F4F0E94C50161E0CE0131
:100D000001960E942902CE0101960E94490268EED6
:100D100073E080E090E00E94C5014DE36EE6CE01F5
:100D200001960E94F80168EE73E080E090E00E9476
:100D3000C50161E0CE0101960E942902CE01019613
:100D40000E94490268EE73E080E090E00E94C501D5
:100D500046E26EE3CE0101960E94F80162EE74E075
:100D600080E090E00E94C50161E0CE0101960E9402
:100D70002902CE0101960E94490268EE73E080E0EC
:100D800090E00E94C5014BE06EE6CE0101960E9404
:100D9000F80164E670E080E090E00E94C50161E047
:100DA000CE0101960E942902CE0101960E944902BD
:100DB00068EE73E080E090E00E94C50144E26BE0E1
:100DC000CE0101960E94F80168EC70E080E090E0AE
:100DD0000E94C50161E0CE0101960E942902CE0168
:100DE00001960E94490268EE73E080E090E00E9464
:100DF000C50147E2410F6FE0CE0101960E94F80164
:100E000068EE73E080E090E00E94C50161E0CE01F1
:100E100001960E942902CE0101960E94490268EEC5
:100E200073E080E090E00E94C50142E26BE3CE01F6
:100E300001960E94F80162EE74E080E090E00E946A
:100E4000C50161E0CE0101960E94290260E375E7C9
:100E500080E090E00E94C501CE0101960E94490207
:100E600068EE73E080E090E00E94C5014EE26FE61C
:100E7000CE0101960E94F80162EE74E080E090E0FD
:100E80000E94C50161E0CE0101960E942902CE01B7
:100E900001960E94490228960FB6F894DEBF0FBE55
:100EA000CDBFDF91CF911F910F9108951F920F92A7
:100EB0000FB60F9211242F933F934F935F936F932D
:100EC0007F938F939F93AF93BF93EF93FF9385E2AD
:100ED00091E00E940001FF91EF91BF91AF919F912E
:100EE0008F917F916F915F914F913F912F910F90D3
:100EF0000FBE0F901F9018951F920F920FB60F9272
:100F000011242F938F939F93EF93FF93E0913501DB
:100F1000F09136018081E0913B01F0913C0182FD2E
:100F20001BC0908180913E018F5F8F7320913F01A4
:100F3000821741F0E0913E01F0E0EB5DFE4F958FAE
:100F400080933E01FF91EF919F918F912F910F9090
:100F50000FBE0F901F9018958081F4CF1F920F92B3
:100F60000FB60F9211242F933F938F939F93AF93BC
:100F7000BF9380911B0190911C01A0911D01B09124
:100F80001E013091160123E0230F2D3758F50196ED
:100F9000A11DB11D2093160180931B0190931C018C
:100FA000A0931D01B0931E0180911701909118012B
:100FB000A0911901B0911A010196A11DB11D809354
:100FC000170190931801A0931901B0931A01BF91D2
:100FD000AF919F918F913F912F910F900FBE0F90E6
:100FE0001F90189526E8230F0296A11DB11DD2CFA0
:100FF000E5E2F1E01382128288EE93E0A0E0B0E037
:1010000084839583A683B78388E091E0918380836E
:1010100085EC90E09587848784EC90E097878687BD
:1010200080EC90E0918B808B81EC90E0938B828BB5
:1010300082EC90E0958B848B86EC90E0978B868B8E
:10104000118E128E138E148EAAECB1E098968D91AB
:101050009C919997FC01EE0FFF1FEE0FFF1FE653C7
:10106000FE4F2CE036E03183208313821282FC0194
:10107000EE0FFF1FEE0FFF1FE253FE4F22EC34E096
:101080003183208321E030E033832283FC01EE0FA3
:10109000FF1FEE0FFF1FEE52FE4F28E733E03183B4
:1010A000208322E030E033832283039699969C9339
:1010B0008E939897E2ECF1E01482158216821782E3
:1010C00010821182128213820895CF93DF9300D091
:1010D00000D0CDB7DEB7789484B5826084BD84B586
:1010E000816084BD85B5826085BD85B5816085BD23
:1010F00080916E00816080936E00109281008091DB
:101100008100826080938100809181008160809362
:101110008100809180008160809380008091B10087
:1011200084608093B1008091B00081608093B000B2
:1011300080917A00846080937A0080917A00826046
:1011400080937A0080917A00816080937A00809108
:101150007A00806880937A001092C100E091350196
:10116000F091360182E08083E0913101F09132010B
:101170001082E0913301F09134018FEC8083109262
:101180003D01E0913901F0913A0186E08083E091E0
:101190003701F0913801808180618083E0913701CF
:1011A000F0913801808188608083E0913701F0916F
:1011B0003801808180688083E0913701F0913801A7
:1011C00080818F7D808310921F01109220011092E8
:1011D0002101109222013CE4C32E34E0D32EE12CF5
:1011E000F12C44EF442E55245394612C712C80E053
:1011F0000E948F015C0181E00E948F018C0182E0DE
:101200000E948F011C0183E00E948F014C0184E049
:101210000E948F019A83898385E00E948F019C83BD
:101220008B83E1EAF0E09491EDE8F0E08491E9E766
:10123000F0E024912111FBC08091230190912401C1
:101240000196909324018093230180912301909132
:101250002401029731F40E94640310922401109239
:101260002301F5EFAF16F1E0BF060CF441C00E9478
:1012700064030E949D0AA70196010E94F50A6A561E
:101280007F4F8F4F9F4F0E94C5010E9476020E94A0
:101290009D0AA70196010E94F50A6A567F4F8F4F5B
:1012A0009F4F0E94C501A091F401B091F501AA0FD2
:1012B000BB1FAA0FBB1FA653BE4FED91FC91119708
:1012C00012968D919C9109958091F4019091F50170
:1012D00001969093F5018093F4012091F2013091F1
:1012E000F3018217930724F01092F5011092F40194
:1012F000053F11402CF48B819C81853F914004F186
:1013000082EC91E00E94490268EE73E080E090E098
:101310000E94C5014CE36BE682EC91E00E94F8016B
:1013200061E082EC91E00E94290264E670E080E0D6
:1013300090E00E94C50161E082EC91E00E942902E8
:10134000F5EF8F16F1E09F0614F00E9464038FB74B
:10135000F89480901B0190901C01A0901D01B0900A
:101360001E018FBF25EF221621E0320634F4898159
:101370009A81853F91400CF44DC080911F0190915E
:101380002001A0912101B0912201B501A401481BC7
:10139000590B6A0B7B0B413C57426940710528F49D
:1013A000892B8A2B8B2B09F079C00E9464030E9441
:1013B0009D0AA30192010E94F50A62517D4F8F4F51
:1013C0009F4F0E94C5010E9476020E949D0AA301C0
:1013D00092010E94F50A62517D4F8F4F9F4F0E94EC
:1013E000C501A091F401B091F501AA0FBB1FAA0F8E
:1013F000BB1FA653BE4FED91FC91119712968D9194
:101400009C91099580921F0190922001A092210148
:10141000B092220180E090E0892B09F4E8CE0E948E
:10142000EC00882309F4E3CE0E940000E0CE99236B
:1014300039F09330E1F088F49130F9F0923009F10D
:10144000E22FF0E0EE0FFF1FE859FF4FA591B49196
:101450009C91892309F4F0CEF8CE9730A9F098300A
:10146000C9F0943069F7909180009F7D03C09091FE
:1014700080009F7790938000E3CF94B59F7794BDD1
:10148000DFCF94B59F7DFBCF9091B0009F77909375
:10149000B000D6CF9091B0009F7DF9CF0E94640339
:1014A000B1CF8F929F92AF92BF92CF92DF92EF9285
:1014B000FF92CF93DF93EC01688179818A819B81D0
:1014C000611571058105910521F464E279ED8BE5E3
:1014D00097E02DE133EF41E050E00E94F50A490129
:1014E0005A019B01AC01A7EAB1E40E94140B6B0105
:1014F0007C01ACEEB4EFA50194010E94220BC60E54
:10150000D71EE81EF91EF7FE06C081E0C81AD108F2
:10151000E10880E8F80AC882D982EA82FB82C70122
:10152000B6019F77DF91CF91FF90EF90DF90CF9042
:10153000BF90AF909F908F9008958F929F92AF929F
:10154000BF92CF92DF92EF92FF9260910001709173
:1015500001018091020190910301611571058105DE
:10156000910521F464E279ED8BE597E02DE133EF0D
:1015700041E050E00E94F50A49015A019B01AC018B
:10158000A7EAB1E40E94140B6B017C01ACEEB4EF4E
:10159000A50194010E94220BC60ED71EE81EF91E5B
:1015A000F7FE06C081E0C81AD108E10880E8F80A11
:1015B000C0920001D0920101E0920201F092030179
:1015C000C701B6019F77FF90EF90DF90CF90BF905B
:1015D000AF909F908F9008956093000170930101E8
:1015E00080930201909303010895052E97FB1EF44A
:1015F00000940E940C0B57FD07D00E94270B07FC9C
:1016000003D04EF40C940C0B5095409530952195D9
:101610003F4F4F4F5F4F089590958095709561951E
:101620007F4F8F4F9F4F08950E94490BA59F900DAC
:10163000B49F900DA49F800D911D11240895B7FFB4
:101640000C94140B0E94140B821B930B0895A1E2BF
:101650001A2EAA1BBB1BFD010DC0AA1FBB1FEE1F2C
:10166000FF1FA217B307E407F50720F0A21BB30B77
:10167000E40BF50B661F771F881F991F1A9469F7F3
:1016800060957095809590959B01AC01BD01CF014F
:101690000895A29FB001B39FC001A39F700D811D4B
:1016A0001124911DB29F700D811D1124911D08956B
:1016B000EE0FFF1F0590F491E02D0994F894FFCFF1
:1016C000010000000000000022018200AF006F0155
:0616D000E000BE00D200A4
:107E0000112484B714BE81FFF0D085E080938100F7
:107E100082E08093C00088E18093C10086E0809377
:107E2000C20080E18093C4008EE0C9D0259A86E02C
:107E300020E33CEF91E0309385002093840096BBD3
:107E4000B09BFECF1D9AA8958150A9F7CC24DD24C4
:107E500088248394B5E0AB2EA1E19A2EF3E0BF2EE7
:107E6000A2D0813461F49FD0082FAFD0023811F036
:107E7000013811F484E001C083E08DD089C08234E0
:107E800011F484E103C0853419F485E0A6D080C0E4
:107E9000853579F488D0E82EFF2485D0082F10E0AE
:107EA000102F00270E291F29000F111F8ED06801E7
:107EB0006FC0863521F484E090D080E0DECF843638
:107EC00009F040C070D06FD0082F6DD080E0C81688
:107ED00080E7D80618F4F601B7BEE895C0E0D1E017
:107EE00062D089930C17E1F7F0E0CF16F0E7DF06D8
:107EF00018F0F601B7BEE89568D007B600FCFDCFD4
:107F0000A601A0E0B1E02C9130E011968C91119780
:107F100090E0982F8827822B932B1296FA010C0160
:107F200087BEE89511244E5F5F4FF1E0A038BF0790
:107F300051F7F601A7BEE89507B600FCFDCF97BE46
:107F4000E89526C08437B1F42ED02DD0F82E2BD052
:107F50003CD0F601EF2C8F010F5F1F4F84911BD097
:107F6000EA94F801C1F70894C11CD11CFA94CF0C13
:107F7000D11C0EC0853739F428D08EE10CD085E9AC
:107F80000AD08FE07ACF813511F488E018D01DD067
:107F900080E101D065CF982F8091C00085FFFCCF94
:107FA0009093C60008958091C00087FFFCCF809118
:107FB000C00084FD01C0A8958091C6000895E0E648
:107FC000F0E098E1908380830895EDDF803219F02E
:107FD00088E0F5DFFFCF84E1DECF1F93182FE3DFCA
:107FE0001150E9F7F2DF1F91089580E0E8DFEE27F6
:047FF000FF270994CA
:027FFE00040479
:00000001FF
