:100000000C9458000C9480000C9480000C94800098
:100010000C9480000C9480000C9480000C94800060
:100020000C9480000C9480000C9480000C94800050
:100030000C9480000C9480000C9480000C94800040
:100040000C94C4040C9480000C9492040C946C04E2
:100050000C9480000C9480000C9480000C94800020
:100060000C9480000C948000000000002300260007
:10007000290004040404040404040202020202022B
:10008000030303030303010204081020408001025C
:1000900004081020010204081020000000080002DB
:1000A00001000003040700000000000000000E052E
:1000B00011241FBECFEFD8E0DEBFCDBF11E0A0E01E
:1000C000B1E0EAE1F0E102C005900D92A631B1077E
:1000D000D9F721E0A6E1B1E001C01D92A83FB20727
:1000E000E1F710E0C8E5D0E004C02197FE010E94CE
:1000F0000508C735D107C9F70E946E050C940B0897
:100100000C940000CF93C82F8091F6019091F701D5
:10011000DC01AA0FBB1FAA0FBB1FA253BE4F880F43
:10012000991F880F991FFC01E653FE4F0280F3814F
:10013000E02D8D919C910995CC23A1F08091F60141
:100140009091F70101969093F7018093F601209129
:10015000F4013091F5018217930724F01092F70112
:100160001092F601CF910895AF92BF92CF92DF9295
:10017000EF92FF920F931F93CF93DF936C017B015C
:100180008B01040F151FEB015E01AE18BF08C017ED
:10019000D10759F06991D601ED91FC910190F08160
:1001A000E02DC6010995892B79F7C501DF91CF9123
:1001B0001F910F91FF90EF90DF90CF90BF90AF9085
:1001C0000895FC01538D448D252F30E0842F90E05D
:1001D000821B930B541710F0CF9608950197089542
:1001E000FC01918D828D981761F0A28DAE0FBF2F0B
:1001F000B11D5D968C91928D9F5F9F73928F90E061
:1002000008958FEF9FEF0895FC01918D828D9817CF
:1002100031F0828DE80FF11D858D90E008958FEF0C
:100220009FEF0895FC01918D228D892F90E0805CD5
:100230009F4F821B91098F739927089585E291E062
:100240000E94120121E0892B09F420E0822F0895F9
:1002500080E090E0892B29F00E941E0181110C940E
:1002600000000895FC01A48DA80FB92FB11DA35A59
:10027000BF4F2C91848D90E001968F739927848FC6
:10028000A689B7892C93A089B1898C9183708064E9
:100290008C93938D848D981306C00288F389E02D8A
:1002A00080818F7D80830895EF92FF920F931F933B
:1002B000CF93DF93EC0181E0888F9B8D8C8D981319
:1002C0001AC0E889F989808185FF15C09FB7F89425
:1002D000EE89FF896083E889F98980818370806471
:1002E00080839FBF81E090E0DF91CF911F910F91BC
:1002F000FF90EF900895F62E0B8D10E00F5F1F4FCB
:100300000F731127E02E8C8D8E110CC00FB607FCD9
:10031000FACFE889F989808185FFF5CFCE010E9467
:100320003201F1CFEB8DEC0FFD2FF11DE35AFF4FA2
:10033000F0829FB7F8940B8FEA89FB8980818062F5
:10034000CFCFCF93DF93EC01888D8823B9F0AA89B2
:10035000BB89E889F9898C9185FD03C0808186FD80
:100360000DC00FB607FCF7CF8C9185FFF2CF8081CF
:1003700085FFEDCFCE010E943201E9CFDF91CF9111
:100380000895806480937C0080917A0080648093DB
:100390007A0080917A0086FDFCCF80917800909160
:1003A000790008953FB7F894809117019091180152
:1003B000A0911901B0911A0126B5A89B05C02F3F45
:1003C00019F00196A11DB11D3FBFBA2FA92F982F7B
:1003D0008827BC01CD01620F711D811D911D42E076
:1003E000660F771F881F991F4A95D1F708958F923E
:1003F0009F92AF92BF92CF92DF92EF92FF926B01EA
:100400007C010E94D2014B015C01C114D104E104C2
:10041000F104B9F00E94D201681979098A099B098F
:10042000683E73408105910580F321E0C21AD1082E
:10043000E108F10888EE880E83E0981EA11CB11C2B
:10044000E4CFFF90EF90DF90CF90BF90AF909F9060
:100450008F900895EF92FF920F931F93CF93DF93A6
:10046000EC0169834A8318820EE110E07C0184E08C
:10047000E80EF11C44E050E0BE0185E291E00E94EC
:10048000B40044E050E0B70185E291E00E94B4007E
:100490000150110979F7188219821A821B8264E6C9
:1004A00070E080E090E0DF91CF911F910F91FF907D
:1004B000EF900C94F701CF93DF93EC01688344E055
:1004C00050E0BC0185E291E00E94B400BE016C5F87
:1004D0007F4F44E050E085E291E00E94B400188232
:1004E00019821A821B8264EF71E080E090E0DF9154
:1004F000CF910C94F701EF92FF920F931F93CF933C
:10050000DF93EC0188E889838A83188202E310E094
:100510007E0184E0E80EF11C44E050E0BE0185E27B
:1005200091E00E94B40044E050E0B70185E291E020
:100530000E94B4000150110979F7188219821A82B9
:100540001B82DF91CF911F910F91FF90EF90089543
:1005500082EC91E00E947B024CE36FE682EC91E03A
:100560000E942A0261E082EC91E00E945B0261E05D
:1005700082EC91E00E945B0261E082EC91E00E94DB
:100580005B0261E082EC91E00E945B0261E082EC40
:1005900091E00E945B0261E082EC91E00E945B02CC
:1005A00061E082EC91E00E945B0261E082EC91E00C
:1005B0000E945B0261E082EC91E00E945B0261E0DC
:1005C00082EC91E00E945B0261E082EC91E00E948B
:1005D0005B0261E082EC91E00E945B0260ED77E0FB
:1005E00080E090E00E94F70182EC91E00E947B02A3
:1005F00068EE73E080E090E00E94F70143E36BE671
:1006000082EC91E00E942A0260ED77E080E090E0C9
:100610000E94F70161E082EC91E00E945B0282ECB3
:1006200091E00E947B0268EE73E080E090E00E941F
:10063000F70141E263E482EC91E00E942A0261E06A
:1006400082EC91E00E945B0282EC91E00E947B02CE
:1006500068EE73E080E090E00E94F70141E267E419
:1006600082EC91E00E942A0261E082EC91E00E941B
:100670005B0282EC91E00E947B0268E97AE380E011
:1006800090E00E94F70168EE73E080E090E00E9445
:10069000F7014DE367E682EC91E00E942A0268EEE2
:1006A00073E080E090E00E94F70161E082EC91E06D
:1006B0000E945B0282EC91E00E947B0268EE73E094
:1006C00080E090E00E94F7014DE36EE682EC91E05D
:1006D0000E942A0268EE73E080E090E00E94F70139
:1006E00061E082EC91E00E945B0282EC91E00E946A
:1006F0007B0268EE73E080E090E00E94F70144E046
:1007000063E782EC91E00E942A0268EE73E080E0E9
:1007100090E00E94F70161E082EC91E00C945B02B2
:100720001F93CF93DF93CDB7DEB728970FB6F8941A
:10073000DEBF0FBECDBF182F1D821E821F821886FE
:1007400019821A821B821C82CE0101960E947B02B2
:1007500068EE73E080E090E00E94F7014BE06EE607
:10076000CE0101960E942A0264E670E080E090E0EB
:100770000E94F70161E0CE0101960E945B0261E0F8
:10078000CE0101960E945B02CE0101960E947B027F
:1007900068EE73E080E090E00E94F70142E16FE0D4
:1007A000CE0101960E942A0264E670E080E090E0AB
:1007B0000E94F70161E0CE0101960E945B02CE012A
:1007C00001960E947B0268EE73E080E090E00E9458
:1007D000F701412F440F410F4A5E6FE0CE010196B1
:1007E0000E942A020E944A0724EF31E040E050E0D4
:1007F0000E94A20762517D4F8F4F9F4F0E94F701C9
:1008000061E0CE0101960E945B02CE0101960E943A
:100810007B0268EE73E080E090E00E94F7014DE318
:100820006EE6CE0101960E942A0268EE73E080E037
:1008300090E00E94F70161E0CE0101960E945B0208
:10084000CE0101960E947B0268EE73E080E090E0AA
:100850000E94F70146E26EE3CE0101960E942A0251
:1008600062EE74E080E090E00E94F70161E0CE016A
:1008700001960E945B02CE0101960E947B0268EE07
:1008800073E080E090E00E94F7014EE26FE6CE0157
:1008900001960E942A0262EE74E080E090E00E94DD
:1008A000F70161E0CE0101960E945B0264EF71E006
:1008B00080E090E00E94F70142EE62EECE010196E8
:1008C0000E942A0228960FB6F894DEBF0FBECDBF55
:1008D000DF91CF911F9108951F920F920FB60F9243
:1008E00011242F933F934F935F936F937F938F9335
:1008F0009F93AF93BF93EF93FF9385E291E00E94A4
:100900003201FF91EF91BF91AF919F918F917F91B4
:100910006F915F914F913F912F910F900FBE0F906C
:100920001F9018951F920F920FB60F9211242F93BC
:100930008F939F93EF93FF93E0913501F0913601F0
:100940008081E0913B01F0913C0182FD1BC09081D0
:1009500080913E018F5F8F7320913F01821741F09C
:10096000E0913E01F0E0EB5DFE4F958F80933E01FC
:10097000FF91EF919F918F912F910F900FBE0F904C
:100980001F9018958081F4CF1F920F920FB60F928F
:1009900011242F933F938F939F93AF93BF93809195
:1009A0001B0190911C01A0911D01B0911E0130917D
:1009B000160123E0230F2D3758F50196A11DB11D17
:1009C0002093160180931B0190931C01A0931D019D
:1009D000B0931E018091170190911801A091190107
:1009E000B0911A010196A11DB11D8093170190933A
:1009F0001801A0931901B0931A01BF91AF919F9173
:100A00008F913F912F910F900FBE0F901F901895CF
:100A100026E8230F0296A11DB11DD2CFE5E2F1E039
:100A20001382128288EE93E0A0E0B0E08483958385
:100A3000A683B78388E091E09183808385EC90E082
:100A40009587848784EC90E09787868780EC90E098
:100A5000918B808B81EC90E0938B828B82EC90E089
:100A6000958B848B86EC90E0978B868B118E128E03
:100A7000138E148EEAECF1E0108281E0818380E92C
:100A800093E093838283158214829783868341E067
:100A900050E0518740879387828722E030E0358796
:100AA000248715A614A697878687118A108A938BA8
:100AB000828B558B448B978B868B318F208F86E072
:100AC00090E093A782A7E2ECF1E0148215821682EF
:100AD000178210821182128213820895789484B54D
:100AE000826084BD84B5816084BD85B5826085BD2A
:100AF00085B5816085BD80916E00816080936E00B8
:100B000010928100809181008260809381008091A9
:100B1000810081608093810080918000816080935A
:100B200080008091B10084608093B1008091B0001A
:100B300081608093B00080917A00846080937A0015
:100B400080917A00826080937A0080917A0081603F
:100B500080937A0080917A00806880937A00109266
:100B6000C100E0913501F091360182E08083E0918F
:100B70003101F09132011082E0913301F0913401A2
:100B80008FEC808310923D01E0913901F0913A01A0
:100B900086E08083E0913701F091380180818061A7
:100BA0008083E0913701F0913801808188608083F3
:100BB000E0913701F0913801808180688083E09175
:100BC0003701F091380180818F7D808310921F0161
:100BD0001092200110922101109222012CE4C22EC9
:100BE00024E0D22EE12CF12C34EF432E55245394E3
:100BF000612C712C40E0242E40E0342E80E00E94D5
:100C0000C1015C0181E00E94C1018C0182E00E946F
:100C1000C101EC01E1EAF0E09491EDE8F0E08491AB
:100C2000E9E7F0E024912111AFC080912301909178
:100C30002401019690932401809323018091230144
:100C4000909124010297A1F464E082EC91E00E946B
:100C50005B0268EC70E080E090E00E94F70164E0E5
:100C600082EC91E00E945B02109224011092230119
:100C7000F5EFAF16F1E0BF0694F00E94A8020E94C3
:100C80004A07A70196010E94A2076A567F4F8F4F1D
:100C90009F4F0E94F7018091CB010E948200053F87
:100CA000114034F182EC91E00E947B0268EC70E02C
:100CB00080E090E00E94F7014CE36BE682EC91E06B
:100CC0000E942A0261E082EC91E00E945B0264E6ED
:100CD00070E080E090E00E94F70161E082EC91E03A
:100CE0000E945B0242EE62EE82EC91E00E942A02D8
:100CF0008FB7F89480901B0190901C01A0901D016B
:100D0000B0901E018FBFC53FD14094F180911F016B
:100D100090912001A0912101B0912201B501A4017F
:100D2000481B590B6A0B7B0B413C574269407105CC
:100D300028F4892B8A2B8B2B09F05DC00E94A80216
:100D40000E944A07A30192010E94A20762517D4FAF
:100D50008F4F9F4F0E94F7018091CA010E9482002D
:100D600080921F0190922001A0922101B092220155
:100D70002114310409F442CF0E941E01882309F492
:100D80003DCF0E9400003ACF992339F09330E1F033
:100D900088F49130F9F0923009F1E22FF0E0EE0F93
:100DA000FF1FE859FF4FA591B4919C91892309F445
:100DB0003CCF44CF9730A9F09830C9F0943069F710
:100DC000909180009F7D03C0909180009F779093C9
:100DD0008000E3CF94B59F7794BDDFCF94B59F7D1E
:100DE000FBCF9091B0009F779093B000D6CF9091B9
:100DF000B0009F7DF9CF0E94A802B2CF8F929F9240
:100E0000AF92BF92CF92DF92EF92FF92CF93DF9398
:100E1000EC01688179818A819B8161157105810569
:100E2000910521F464E279ED8BE597E02DE133EF54
:100E300041E050E00E94A20749015A019B01AC0128
:100E4000A7EAB1E40E94C1076B017C01ACEEB4EFEC
:100E5000A50194010E94CF07C60ED71EE81EF91EF9
:100E6000F7FE06C081E0C81AD108E10880E8F80A58
:100E7000C882D982EA82FB82C701B6019F77DF91DF
:100E8000CF91FF90EF90DF90CF90BF90AF909F9069
:100E90008F9008958F929F92AF92BF92CF92DF92E0
:100EA000EF92FF9260910001709101018091020127
:100EB00090910301611571058105910521F464E2AA
:100EC00079ED8BE597E02DE133EF41E050E00E94B2
:100ED000A20749015A019B01AC01A7EAB1E40E94B3
:100EE000C1076B017C01ACEEB4EFA50194010E9437
:100EF000CF07C60ED71EE81EF91EF7FE06C081E01A
:100F0000C81AD108E10880E8F80AC0920001D0921E
:100F10000101E0920201F0920301C701B6019F773F
:100F2000FF90EF90DF90CF90BF90AF909F908F9009
:100F300008956093000170930101809302019093E2
:100F400003010895052E97FB1EF400940E94B90733
:100F500057FD07D00E94D40707FC03D04EF40C9431
:100F6000B90750954095309521953F4F4F4F5F4FB2
:100F7000089590958095709561957F4F8F4F9F4F05
:100F800008950E94F607A59F900DB49F900DA49F11
:100F9000800D911D11240895B7FF0C94C1070E9484
:100FA000C107821B930B0895A1E21A2EAA1BBB1B3B
:100FB000FD010DC0AA1FBB1FEE1FFF1FA217B30725
:100FC000E407F50720F0A21BB30BE40BF50B661F3B
:100FD000771F881F991F1A9469F7609570958095FF
:100FE00090959B01AC01BD01CF010895A29FB00176
:100FF000B39FC001A39F700D811D1124911DB29F4D
:10100000700D811D1124911D0895EE0FFF1F059095
:0A101000F491E02D0994F894FFCF4D
:10101A0001000000000000005401B400E100A10139
:06102A001201F0000401B8
:00000001FF
