:020000040000FA
:100000000C9435000C945D000C945D000C945D0024
:100010000C945D000C945D000C945D000C945D00EC
:100020000C945D000C945D000C945D000C945D00DC
:100030000C945D000C945D000C945D000C945D00CC
:100040000C94CB050C945D000C9499050C947305ED
:100050000C945D000C945D000C945D000C945D00AC
:100060000C945D000C945D00150611241FBECFEFAB
:10007000D8E0DEBFCDBF11E0A0E0B1E0ECEFF1E1F0
:1000800002C005900D92A631B107D9F721E0A6E193
:10009000B1E001C01D92A43FB207E1F710E0C5E353
:1000A000D0E004C02197FE010E94F608C433D107B6
:1000B000C9F70E9480060C94FC080C940000AF92D3
:1000C000BF92CF92DF92EF92FF920F931F93CF9345
:1000D000DF936C017B018B01040F151FEB015E01A7
:1000E000AE18BF08C017D10759F06991D601ED913C
:1000F000FC910190F081E02DC6010995892B79F7DB
:10010000C501DF91CF911F910F91FF90EF90DF908C
:10011000CF90BF90AF900895FC01538D448D252F53
:1001200030E0842F90E0821B930B541710F0CF9691
:10013000089501970895FC01918D828D981761F0C3
:10014000A28DAE0FBF2FB11D5D968C91928D9F5FDA
:100150009F73928F90E008958FEF9FEF0895FC01B9
:10016000918D828D981731F0828DE80FF11D858D6C
:1001700090E008958FEF9FEF0895FC01918D228DFF
:10018000892F90E0805C9F4F821B91098F73992784
:10019000089583E291E00E94BD0021E0892B09F4DB
:1001A00020E0822F089580E090E0892B29F00E94C2
:1001B000C90081110C9400000895FC01A48DA80FC2
:1001C000B92FB11DA35ABF4F2C91848D90E0019699
:1001D0008F739927848FA689B7892C93A089B189B9
:1001E0008C91837080648C93938D848D981306C05A
:1001F0000288F389E02D80818F7D80830895EF92BE
:10020000FF920F931F93CF93DF93EC0181E0888FD0
:100210009B8D8C8D98131AC0E889F989808185FFA0
:1002200015C09FB7F894EE89FF896083E889F98942
:1002300080818370806480839FBF81E090E0DF9144
:10024000CF911F910F91FF90EF900895F62E0B8D97
:1002500010E00F5F1F4F0F731127E02E8C8D8E1152
:100260000CC00FB607FCFACFE889F989808185FFB9
:10027000F5CFCE010E94DD00F1CFEB8DEC0FFD2F0D
:10028000F11DE35AFF4FF0829FB7F8940B8FEA8974
:10029000FB8980818062CFCFCF93DF93EC01888D83
:1002A0008823B9F0AA89BB89E889F9898C9185FDF1
:1002B00003C0808186FD0DC00FB607FCF7CF8C917F
:1002C00085FFF2CF808185FFEDCFCE010E94DD005A
:1002D000E9CFDF91CF910895806480937C00809175
:1002E0007A00806480937A0080917A0086FDFCCF4A
:1002F000809178009091790008953FB7F8948091AB
:10030000170190911801A0911901B0911A0126B519
:10031000A89B05C02F3F19F00196A11DB11D3FBF3D
:10032000BA2FA92F982F8827BC01CD01620F711D0C
:10033000811D911D42E0660F771F881F991F4A9506
:10034000D1F708958F929F92AF92BF92CF92DF9292
:10035000EF92FF926B017C010E947D014B015C01D9
:10036000C114D104E104F104B9F00E947D016819BF
:1003700079098A099B09683E73408105910580F3DC
:1003800021E0C21AD108E108F10888EE880E83E066
:10039000981EA11CB11CE4CFFF90EF90DF90CF908E
:1003A000BF90AF909F908F900895EF92FF920F9320
:1003B0001F93CF93DF93EC0169834A8318820EE188
:1003C00010E07C0184E0E80EF11C44E050E0BE0146
:1003D00083E291E00E945F0044E050E0B70183E2D5
:1003E00091E00E945F000150110979F7188219828B
:1003F0001A821B8264E670E080E090E0DF91CF918A
:100400001F910F91FF90EF900C94A201CF93DF9377
:10041000EC01688344E050E0BC0183E291E00E947B
:100420005F00BE016C5F7F4F44E050E083E291E0EB
:100430000E945F00188219821A821B8264EF71E0A9
:1004400080E090E0DF91CF910C94A201EF92FF92B7
:100450000F931F93CF93DF93EC0188E889838A83FE
:10046000188202E310E07E0184E0E80EF11C44E013
:1004700050E0BE0183E291E00E945F0044E050E062
:10048000B70183E291E00E945F000150110979F702
:10049000188219821A821B82DF91CF911F910F91CE
:1004A000FF90EF90089580EC91E00E94260264E6B0
:1004B00070E080E090E00E94A2014CE36EE680ECE8
:1004C00091E00E94D50161E080EC91E00E9406027B
:1004D00061E080EC91E00E94060261E080EC91E036
:1004E0000E94060261E080EC91E00E94060261E059
:1004F00080EC91E00E94060261E080EC91E00E94B5
:10050000060261E080EC91E00E94060261E080EC6E
:1005100091E00E94060261E080EC91E00E940602F8
:1005200061E080EC91E00E94060261E080EC91E0E5
:100530000E94060261E080EC91E00E94060260EDFC
:1005400077E080E090E00E94A20180EC91E00E94C0
:10055000260268EE73E080E090E00E94A20143E38F
:100560006BE680EC91E00E94D50160ED77E080E0E1
:1005700090E00E94A20161E080EC91E00E940602FE
:1005800080EC91E00E94260268EE73E080E090E04B
:100590000E94A20141E263E480EC91E00E94D50157
:1005A00061E080EC91E00E94060280EC91E00E9404
:1005B000260268EE73E080E090E00E94A20141E232
:1005C00067E480EC91E00E94D50161E080EC91E06D
:1005D0000E94060280EC91E00E94260268E97AE31C
:1005E00080E090E00E94A20168EE73E080E090E07D
:1005F0000E94A2014DE367E680EC91E00E94D501E4
:1006000068EE73E080E090E00E94A20161E080EC7F
:1006100091E00E94060280EC91E00E94260268EEC2
:1006200073E080E090E00E94A2014DE36EE680EC72
:1006300091E00E94D50168EE73E080E090E00E94B6
:10064000A20161E080EC91E00E94060280EC91E062
:100650000E94260268EE73E080E090E00E94A20112
:1006600044E063E780EC91E00E94D50168EE73E01E
:1006700080E090E00E94A20161E080EC91E00C94A7
:10068000060280EC91E00E94260243E060E080ECEC
:1006900091E00E94D50164E080EC91E00E940602A6
:1006A00064E080EC91E00C9406020F931F93CF93CB
:1006B000DF93CDB7DEB728970FB6F894DEBF0FBE35
:1006C000CDBF082F1D821E821F82188619821A82B2
:1006D0001B821C82CE0101960E94260268EE73E006
:1006E00080E090E00E94A2014BE06EE6CE01019610
:1006F0000E94D50164E670E080E090E00E94A201D3
:1007000061E0CE0101960E94060261E0CE010196F1
:100710000E940602CE0101960E94260268EE73E056
:1007200080E090E00E94A20142E16FE0CE010196DC
:100730000E94D50164E670E080E090E00E94A20192
:1007400061E0CE0101960E940602CE0101960E9450
:10075000260268EE73E080E090E00E94A201102F74
:10076000110F100F46E1410F6FE0CE0101960E947C
:10077000D5010E943B0824EF31E040E050E00E94A8
:10078000930862517D4F8F4F9F4F0E94A20161E0FD
:10079000CE0101960E940602CE0101960E94260219
:1007A00068EE73E080E090E00E94A2014DE36EE607
:1007B000CE0101960E94D50168EE73E080E090E0E2
:1007C0000E94A20161E0CE0101960E940602CE01C4
:1007D00001960E94260268EE73E080E090E00E949D
:1007E000A20146E26EE3CE0101960E94D50162EEBF
:1007F00074E080E090E00E94A20161E0CE010196E9
:100800000E940602CE0101960E94260268EE73E065
:1008100080E090E00E94A2014BE06EE6CE010196DE
:100820000E94D50164E670E080E090E00E94A201A1
:1008300061E0CE0101960E940602CE0101960E945F
:10084000260268EE73E080E090E00E94A20144E29C
:100850006BE0CE0101960E94D50168EC70E080E06B
:1008600090E00E94A20161E0CE0101960E94060282
:10087000CE0101960E94260268EE73E080E090E0CF
:100880000E94A20147E2410F6FE0CE0101960E9453
:10089000D50168EE73E080E090E00E94A20161E083
:1008A000CE0101960E940602CE0101960E94260208
:1008B00068EE73E080E090E00E94A20143E261E410
:1008C000CE0101960E94D50162EE74E080E090E0D6
:1008D0000E94A20161E0CE0101960E94060268EA30
:1008E00071E680E090E00E94A201CE0101960E9494
:1008F000260268EE73E080E090E00E94A2014EE2E2
:100900006FE6CE0101960E94D50162EE74E080E0B0
:1009100090E00E94A20161E0CE0101960E940602D1
:10092000CE0101960E94260228960FB6F894DEBFEB
:100930000FBECDBFDF91CF911F910F9108951F93EF
:10094000CF93DF93CDB7DEB728970FB6F894DEBF0D
:100950000FBECDBF182F1D821E821F8218861982DE
:100960001A821B821C82CE0101960E94260268EE2A
:1009700073E080E090E00E94A2014BE06EE6CE01C1
:1009800001960E94D50164E670E080E090E00E944C
:10099000A20161E0CE0101960E94060261E0CE0153
:1009A00001960E940602CE0101960E94260268EE80
:1009B00073E080E090E00E94A20142E16FE0CE018E
:1009C00001960E94D50164E670E080E090E00E940C
:1009D000A20161E0CE0101960E940602CE010196BD
:1009E0000E94260268EE73E080E090E00E94A2017F
:1009F000412F440F410F4A5E6FE0CE0101960E94E5
:100A0000D5010E943B0824EF31E040E050E00E9415
:100A1000930862517D4F8F4F9F4F0E94A20161E06A
:100A2000CE0101960E940602CE0101960E94260286
:100A300068EE73E080E090E00E94A2014DE36EE674
:100A4000CE0101960E94D50168EE73E080E090E04F
:100A50000E94A20161E0CE0101960E940602CE0131
:100A600001960E94260268EE73E080E090E00E940A
:100A7000A20146E26EE3CE0101960E94D50162EE2C
:100A800074E080E090E00E94A20161E0CE01019656
:100A90000E940602CE0101960E94260268EE73E0D3
:100AA00080E090E00E94A2014EE26FE6CE01019646
:100AB0000E94D50162EE74E080E090E00E94A20105
:100AC00061E0CE0101960E940602CE0101960E94CD
:100AD000260228960FB6F894DEBF0FBECDBFDF9179
:100AE000CF911F9108951F920F920FB60F9211246C
:100AF0002F933F934F935F936F937F938F939F9326
:100B0000AF93BF93EF93FF9383E291E00E94DD00E8
:100B1000FF91EF91BF91AF919F918F917F916F91D5
:100B20005F914F913F912F910F900FBE0F901F90AB
:100B300018951F920F920FB60F9211242F938F9337
:100B40009F93EF93FF93E0913301F0913401808103
:100B5000E0913901F0913A0182FD1BC090818091B2
:100B60003C018F5F8F7320913D01821741F0E0912E
:100B70003C01F0E0ED5DFE4F958F80933C01FF91CD
:100B8000EF919F918F912F910F900FBE0F901F901B
:100B900018958081F4CF1F920F920FB60F921124F7
:100BA0002F933F938F939F93AF93BF9380911B019C
:100BB00090911C01A0911D01B0911E013091160170
:100BC00023E0230F2D3758F50196A11DB11D209369
:100BD000160180931B0190931C01A0931D01B093FB
:100BE0001E018091170190911801A0911901B091F7
:100BF0001A010196A11DB11D809317019093180150
:100C0000A0931901B0931A01BF91AF919F918F9159
:100C10003F912F910F900FBE0F901F90189526E8CF
:100C2000230F0296A11DB11DD2CFE3E2F1E01382A2
:100C3000128288EE93E0A0E0B0E084839583A683DF
:100C4000B78388E091E09183808385EC90E095877D
:100C5000848784EC90E09787868780EC90E0918B86
:100C6000808B81EC90E0938B828B82EC90E0958B73
:100C7000848B86EC90E0978B868B118E128E138E70
:100C8000148EA8ECB1E098968D919C919997FC01F7
:100C9000EE0FFF1FEE0FFF1FE853FE4F25E533E079
:100CA0003183208313821282FC01EE0FFF1FEE0FAF
:100CB000FF1FE453FE4F2FE934E03183208341E0EE
:100CC00050E053834283FC01EE0FFF1FEE0FFF1F26
:100CD000E053FE4F3183208322E030E033832283D0
:100CE000039699969C938E939897E0ECF1E014828A
:100CF0001582168217821082118212821382089541
:100D0000789484B5826084BD84B5816084BD85B5E6
:100D1000826085BD85B5816085BD80916E008160F2
:100D200080936E0010928100809181008260809398
:100D3000810080918100816080938100809180009A
:100D40008160809380008091B10084608093B100C5
:100D50008091B00081608093B00080917A008460BF
:100D600080937A0080917A00826080937A008091EB
:100D70007A00816080937A0080917A008068809305
:100D80007A001092C100E0913301F091340182E0C9
:100D90008083E0912F01F09130011082E0913101C8
:100DA000F09132018FEC808310923B01E09137018A
:100DB000F091380186E08083E0913501F0913601B1
:100DC000808180618083E0913501F09136018081DE
:100DD00088608083E0913501F091360180818068E0
:100DE0008083E0913501F091360180818F7D808391
:100DF00010921F01109220011092210110922201E5
:100E00002CE4C22E24E0D22EE12CF12C34EF432E20
:100E100055245394612C712C40E0242E40E0342E54
:100E200080E00E946C015C0181E00E946C018C01F9
:100E300082E00E946C01EC0125EFA21621E0B206CF
:100E40000CF43FC00E943B08A70196010E94930842
:100E50006A567F4F8F4F9F4F0E94A2010E945302FC
:100E60000E943B08A70196010E9493086A567F4F93
:100E70008F4F9F4F0E94A201A091F201B091F30108
:100E8000AA0FBB1FAA0FBB1FA853BE4FED91FC9129
:100E9000119712968D919C9109958091F2019091F4
:100EA000F30101969093F3018093F2012091F001F8
:100EB0003091F1018217930724F01092F301109200
:100EC000F201053F114004F180EC91E00E942602FE
:100ED00068EE73E080E090E00E94A2014CE36BE6D4
:100EE00080EC91E00E94D50161E080EC91E00E94ED
:100EF000060264E670E080E090E00E94A20161E0FA
:100F000080EC91E00E9406028FB7F89480901B015C
:100F100090901C01A0901D01B0901E018FBFC53F95
:100F2000D1400CF44DC080911F0190912001A091FF
:100F30002101B0912201B501A401481B590B6A0B94
:100F40007B0B413C57426940710528F4892B8A2B61
:100F50008B2B09F041C00E9441030E943B08A30172
:100F600092010E94930862517D4F8F4F9F4F0E94C4
:100F7000A2010E9453020E943B08A30192010E9419
:100F8000930862517D4F8F4F9F4F0E94A201A09105
:100F9000F201B091F301AA0FBB1FAA0FBB1FA85308
:100FA000BE4FED91FC91119712968D919C910995F0
:100FB00080921F0190922001A0922101B092220103
:100FC0002114310409F42CCF0E94C900882309F4AC
:100FD00027CF0E94000024CF0E944103E9CF8F92C7
:100FE0009F92AF92BF92CF92DF92EF92FF92CF93F8
:100FF000DF93EC01688179818A819B81611571059C
:101000008105910521F464E279ED8BE597E02DE10E
:1010100033EF41E050E00E94930849015A019B01DF
:10102000AC01A7EAB1E40E94B2086B017C01ACEE0E
:10103000B4EFA50194010E94C008C60ED71EE81E99
:10104000F91EF7FE06C081E0C81AD108E10880E861
:10105000F80AC882D982EA82FB82C701B6019F776B
:10106000DF91CF91FF90EF90DF90CF90BF90AF9046
:101070009F908F9008958F929F92AF92BF92CF9240
:10108000DF92EF92FF9260910001709101018091D7
:10109000020190910301611571058105910521F40B
:1010A00064E279ED8BE597E02DE133EF41E050E02C
:1010B0000E94930849015A019B01AC01A7EAB1E4DF
:1010C0000E94B2086B017C01ACEEB4EFA501940163
:1010D0000E94C008C60ED71EE81EF91EF7FE06C005
:1010E00081E0C81AD108E10880E8F80AC09200013E
:1010F000D0920101E0920201F0920301C701B60112
:101100009F77FF90EF90DF90CF90BF90AF909F9030
:101110008F90089560930001709301018093020104
:10112000909303010895052E97FB1EF400940E94EE
:10113000AA0857FD07D00E94C50807FC03D04EF44B
:101140000C94AA0850954095309521953F4F4F4FEC
:101150005F4F089590958095709561957F4F8F4F63
:101160009F4F08950E94E708A59F900DB49F900D92
:10117000A49F800D911D11240895B7FF0C94B2080F
:101180000E94B208821B930B0895A1E21A2EAA1B9B
:10119000BB1BFD010DC0AA1FBB1FEE1FFF1FA21727
:1011A000B307E407F50720F0A21BB30BE40BF50B24
:1011B000661F771F881F991F1A9469F760957095AD
:1011C000809590959B01AC01BD01CF010895A29F30
:1011D000B001B39FC001A39F700D811D1124911D0B
:1011E000B29F700D811D1124911D0895EE0FFF1FF8
:1011F0000590F491E02D0994F894FFCF01000000D0
:1012000000000000FF005F008C004C01BD009B004F
:02121000AF002D
:107E0000112484B714BE81FFF0D085E080938100F7
:107E100082E08093C00088E18093C10086E0809377
:107E2000C20080E18093C4008EE0C9D0259A86E02C
:107E300020E33CEF91E0309385002093840096BBD3
:107E4000B09BFECF1D9AA8958150A9F7CC24DD24C4
:107E500088248394B5E0AB2EA1E19A2EF3E0BF2EE7
:107E6000A2D0813461F49FD0082FAFD0023811F036
:107E7000013811F484E001C083E08DD089C08234E0
:107E800011F484E103C0853419F485E0A6D080C0E4
:107E9000853579F488D0E82EFF2485D0082F10E0AE
:107EA000102F00270E291F29000F111F8ED06801E7
:107EB0006FC0863521F484E090D080E0DECF843638
:107EC00009F040C070D06FD0082F6DD080E0C81688
:107ED00080E7D80618F4F601B7BEE895C0E0D1E017
:107EE00062D089930C17E1F7F0E0CF16F0E7DF06D8
:107EF00018F0F601B7BEE89568D007B600FCFDCFD4
:107F0000A601A0E0B1E02C9130E011968C91119780
:107F100090E0982F8827822B932B1296FA010C0160
:107F200087BEE89511244E5F5F4FF1E0A038BF0790
:107F300051F7F601A7BEE89507B600FCFDCF97BE46
:107F4000E89526C08437B1F42ED02DD0F82E2BD052
:107F50003CD0F601EF2C8F010F5F1F4F84911BD097
:107F6000EA94F801C1F70894C11CD11CFA94CF0C13
:107F7000D11C0EC0853739F428D08EE10CD085E9AC
:107F80000AD08FE07ACF813511F488E018D01DD067
:107F900080E101D065CF982F8091C00085FFFCCF94
:107FA0009093C60008958091C00087FFFCCF809118
:107FB000C00084FD01C0A8958091C6000895E0E648
:107FC000F0E098E1908380830895EDDF803219F02E
:107FD00088E0F5DFFFCF84E1DECF1F93182FE3DFCA
:107FE0001150E9F7F2DF1F91089580E0E8DFEE27F6
:047FF000FF270994CA
:027FFE00040479
:00000001FF
