:100000000C9458000C9480000C9480000C94800098
:100010000C9480000C9480000C9480000C94800060
:100020000C9480000C9480000C9480000C94800050
:100030000C9480000C9480000C9480000C94800040
:100040000C94FC050C9480000C94CA050C94A40537
:100050000C9480000C9480000C9480000C94800020
:100060000C9480000C948000000000002300260007
:10007000290004040404040404040202020202022B
:10008000030303030303010204081020408001025C
:1000900004081020010204081020000000080002DB
:1000A00001000003040700000000000000004606F5
:1000B00011241FBECFEFD8E0DEBFCDBF11E0A0E01E
:1000C000B1E0E4E8F2E102C005900D92A631B1077B
:1000D000D9F721E0A6E1B1E001C01D92A83FB20727
:1000E000E1F710E0C8E5D0E004C02197FE010E94CE
:1000F0003A09C735D107C9F70E94A6060C944009F2
:100100000C940000CF93C82F8091F6019091F701D5
:10011000DC01AA0FBB1FAA0FBB1FA253BE4F880F43
:10012000991F880F991FFC01E653FE4F0280F3814F
:10013000E02D8D919C910995CC23A1F08091F60141
:100140009091F70101969093F7018093F601209129
:10015000F4013091F5018217930724F01092F70112
:100160001092F601CF910895AF92BF92CF92DF9295
:10017000EF92FF920F931F93CF93DF936C017B015C
:100180008B01040F151FEB015E01AE18BF08C017ED
:10019000D10759F06991D601ED91FC910190F08160
:1001A000E02DC6010995892B79F7C501DF91CF9123
:1001B0001F910F91FF90EF90DF90CF90BF90AF9085
:1001C0000895FC01538D448D252F30E0842F90E05D
:1001D000821B930B541710F0CF9608950197089542
:1001E000FC01918D828D981761F0A28DAE0FBF2F0B
:1001F000B11D5D968C91928D9F5F9F73928F90E061
:1002000008958FEF9FEF0895FC01918D828D9817CF
:1002100031F0828DE80FF11D858D90E008958FEF0C
:100220009FEF0895FC01918D228D892F90E0805CD5
:100230009F4F821B91098F739927089585E291E062
:100240000E94120121E0892B09F420E0822F0895F9
:1002500080E090E0892B29F00E941E0181110C940E
:1002600000000895FC01A48DA80FB92FB11DA35A59
:10027000BF4F2C91848D90E001968F739927848FC6
:10028000A689B7892C93A089B1898C9183708064E9
:100290008C93938D848D981306C00288F389E02D8A
:1002A00080818F7D80830895EF92FF920F931F933B
:1002B000CF93DF93EC0181E0888F9B8D8C8D981319
:1002C0001AC0E889F989808185FF15C09FB7F89425
:1002D000EE89FF896083E889F98980818370806471
:1002E00080839FBF81E090E0DF91CF911F910F91BC
:1002F000FF90EF900895F62E0B8D10E00F5F1F4FCB
:100300000F731127E02E8C8D8E110CC00FB607FCD9
:10031000FACFE889F989808185FFF5CFCE010E9467
:100320003201F1CFEB8DEC0FFD2FF11DE35AFF4FA2
:10033000F0829FB7F8940B8FEA89FB8980818062F5
:10034000CFCFCF93DF93EC01888D8823B9F0AA89B2
:10035000BB89E889F9898C9185FD03C0808186FD80
:100360000DC00FB607FCF7CF8C9185FFF2CF8081CF
:1003700085FFEDCFCE010E943201E9CFDF91CF9111
:100380000895806480937C0080917A0080648093DB
:100390007A0080917A0086FDFCCF80917800909160
:1003A000790008953FB7F894809117019091180152
:1003B000A0911901B0911A0126B5A89B05C02F3F45
:1003C00019F00196A11DB11D3FBFBA2FA92F982F7B
:1003D0008827BC01CD01620F711D811D911D42E076
:1003E000660F771F881F991F4A95D1F708958F923E
:1003F0009F92AF92BF92CF92DF92EF92FF926B01EA
:100400007C010E94D2014B015C01C114D104E104C2
:10041000F104B9F00E94D201681979098A099B098F
:10042000683E73408105910580F321E0C21AD1082E
:10043000E108F10888EE880E83E0981EA11CB11C2B
:10044000E4CFFF90EF90DF90CF90BF90AF909F9060
:100450008F900895EF92FF920F931F93CF93DF93A6
:10046000EC0169834A8318820EE110E07C0184E08C
:10047000E80EF11C44E050E0BE0185E291E00E94EC
:10048000B40044E050E0B70185E291E00E94B4007E
:100490000150110979F7188219821A821B8264E6C9
:1004A00070E080E090E0DF91CF911F910F91FF907D
:1004B000EF900C94F701CF93DF93EC01688344E055
:1004C00050E0BC0185E291E00E94B400BE016C5F87
:1004D0007F4F44E050E085E291E00E94B400188232
:1004E00019821A821B8264EF71E080E090E0DF9154
:1004F000CF910C94F701EF92FF920F931F93CF933C
:10050000DF93EC0188E889838A83188202E310E094
:100510007E0184E0E80EF11C44E050E0BE0185E27B
:1005200091E00E94B40044E050E0B70185E291E020
:100530000E94B4000150110979F7188219821A82B9
:100540001B82DF91CF911F910F91FF90EF90089543
:10055000CF92DF92EF92FF926B017C01C114D10424
:10056000E104F10441F00E947F08A70196010E9476
:10057000D7086B017C01C701B601FF90EF90DF90B7
:10058000CF9008951F93CF93DF93CDB7DEB7289711
:100590000FB6F894DEBF0FBECDBF182F1D821E828E
:1005A0001F82188619821A821B821C82CE01019634
:1005B0000E947B024BE06EE6CE0101960E942A0269
:1005C00064EF71E080E090E00E94A80268517C4FE7
:1005D0008F4F9F4F0E94F70161E0CE0101960E946C
:1005E0005B0261E0CE0101960E945B0260ED77E064
:1005F00080E090E00E94F70147E061EACE010196B9
:100600000E942A0264EF71E080E090E00E94A8025C
:1006100068517C4F8F4F9F4F0E94F70161E0CE01E0
:1006200001960E945B0264EF71E080E090E00E941E
:10063000A80268517C4F8F4F9F4F0E94F701412FB6
:10064000440F410F4C5F60E0CE0101960E942A02E8
:1006500064EF71E080E090E00E94A80268517C4F56
:100660008F4F9F4F0E94F70161E0CE0101960E94DB
:100670005B0264EF71E080E090E00E94A8026851A4
:100680007C4F8F4F9F4F0E94F701812F880F880F5B
:10069000412F481B495D6FE5CE0101960E942A0259
:1006A00064EF71E080E090E00E94A80268517C4F06
:1006B0008F4F9F4F0E94F70161E0CE0101960E948B
:1006C0005B0264EF71E080E090E00E94A802685154
:1006D0007C4F8F4F9F4F0E94F70149EE60EDCE0196
:1006E00001960E942A0264EF71E080E090E00E948F
:1006F000A80268517C4F8F4F9F4F0E94F70161E025
:10070000CE0101960E945B02CE0101960E947B02FF
:1007100068EE73E080E090E00E94F7014EE26FE641
:10072000CE0101960E942A0264EF71E080E090E021
:100730000E94A80268517C4F8F4F9F4F0E94F70183
:1007400061E0CE0101960E945B0264EF71E080E0FF
:1007500090E00E94A80268517C4F8F4F9F4F0E94EB
:10076000F7014CEE6CEECE0101960E942A0228960B
:100770000FB6F894DEBF0FBECDBFDF91CF911F91B2
:10078000089582EC91E00E947B0268EC70E080E0CA
:1007900090E00E94F7014CE36FE682EC91E00E944A
:1007A0002A0261E082EC91E00E945B0261E082EC4F
:1007B00091E00E945B0261E082EC91E00E945B02AA
:1007C00061E082EC91E00E945B0261E082EC91E0EA
:1007D0000E945B0261E082EC91E00E945B0261E0BA
:1007E00082EC91E00E945B0261E082EC91E00E9469
:1007F0005B0261E082EC91E00E945B0261E082ECCE
:1008000091E00E945B0261E082EC91E00E945B0259
:1008100061E082EC91E00E945B0261E082EC91E099
:100820000E945B0261E082EC91E00E945B0261E069
:1008300082EC91E00E945B0261E082EC91E00E9418
:100840005B0261E082EC91E00E945B0261E082EC7D
:1008500091E00E945B0261E082EC91E00E945B0209
:1008600060ED77E080E090E00E94F7014FEC6FEFE1
:1008700082EC91E00E942A026CED75E080E090E04D
:100880000E94F70161E082EC91E00E945B0243E08C
:1008900061EA82EC91E00E942A0268EC70E080E05C
:1008A00090E00E94A80268517C4F8F4F9F4F0E949A
:1008B000F70161E082EC91E00E945B0268EC70E07D
:1008C00080E090E00E94A80268517C4F8F4F9F4FBC
:1008D0000E94F7014CE060E082EC91E00E942A0265
:1008E00068EC70E080E090E00E94A80268517C4FC4
:1008F0008F4F9F4F0E94F70161E082EC91E00E94D0
:100900005B0268EC70E080E090E00E94A802685111
:100910007C4F8F4F9F4F0E94F7014EE06CEF82ECAF
:1009200091E00E942A0268EC70E080E090E00E9472
:10093000A80268517C4F8F4F9F4F0E94F70161E0E2
:1009400082EC91E00E945B0268EC70E080E090E055
:100950000E94A80268517C4F8F4F9F4F0E94F70161
:1009600045E163E682EC91E00E942A0268EC70E0C7
:1009700080E090E00E94A80268517C4F8F4F9F4F0B
:100980000E94F70161E082EC91E00E945B0268EC5A
:1009900070E080E090E00E94A80268517C4F8F4F89
:1009A0009F4F0E94F70149EE60ED82EC91E00E94BA
:1009B0002A0268EC70E080E090E00E94A802685192
:1009C0007C4F8F4F9F4F0E94F70161E082EC91E0D6
:1009D0000E945B0260EE7EE280E090E00E94F70100
:1009E0004DE06DE282EC91E00E942A0268EC70E03A
:1009F00080E090E00E94A80268517C4F8F4F9F4F8B
:100A00000E94F70161E082EC91E00E945B0268ECD9
:100A100070E080E090E00E94A80268517C4F8F4F08
:100A20009F4F0E94F7014EEE68ED82EC91E00E942C
:100A30002A0261E082EC91E00E945B0268EC70E0C7
:100A400080E090E00E94A80268517C4F8F4F9F4F3A
:100A50000E94F70140E064E082EC91E00E942A02EB
:100A600061E082EC91E00E945B0260E177E280E06D
:100A700090E00E94F70168EC70E080E090E00E9456
:100A8000A80268517C4F8F4F9F4F0E94F7014CE1A5
:100A900060E282EC91E00E942A0268EC70E080E063
:100AA00090E00E94A80268517C4F8F4F9F4F0E9498
:100AB000F70161E082EC91E00E945B0268EC70E07B
:100AC00080E090E00E94A80268517C4F8F4F9F4FBA
:100AD0000E94F70140E067E082EC91E00E942A0268
:100AE00068EC70E080E090E00E94A80268517C4FC2
:100AF0008F4F9F4F0E94F70161E082EC91E00E94CE
:100B00005B0268EC70E080E090E00E94A80268510F
:100B10007C4F8F4F9F4F0E94F70147EC65E082ECBE
:100B200091E00E942A0268EC70E080E090E00E9470
:100B3000A80268517C4F8F4F9F4F0E94F70161E0E0
:100B400082EC91E00C945B021F920F920FB60F9211
:100B500011242F933F934F935F936F937F938F93C2
:100B60009F93AF93BF93EF93FF9385E291E00E9431
:100B70003201FF91EF91BF91AF919F918F917F9142
:100B80006F915F914F913F912F910F900FBE0F90FA
:100B90001F9018951F920F920FB60F9211242F934A
:100BA0008F939F93EF93FF93E0913501F09136017E
:100BB0008081E0913B01F0913C0182FD1BC090815E
:100BC00080913E018F5F8F7320913F01821741F02A
:100BD000E0913E01F0E0EB5DFE4F958F80933E018A
:100BE000FF91EF919F918F912F910F900FBE0F90DA
:100BF0001F9018958081F4CF1F920F920FB60F921D
:100C000011242F933F938F939F93AF93BF93809122
:100C10001B0190911C01A0911D01B0911E0130910A
:100C2000160123E0230F2D3758F50196A11DB11DA4
:100C30002093160180931B0190931C01A0931D012A
:100C4000B0931E018091170190911801A091190194
:100C5000B0911A010196A11DB11D809317019093C7
:100C60001801A0931901B0931A01BF91AF919F9100
:100C70008F913F912F910F900FBE0F901F9018955D
:100C800026E8230F0296A11DB11DD2CFE5E2F1E0C7
:100C90001382128288EE93E0A0E0B0E08483958313
:100CA000A683B78388E091E09183808385EC90E010
:100CB0009587848784EC90E09787868780EC90E026
:100CC000918B808B81EC90E0938B828B82EC90E017
:100CD000958B848B86EC90E0978B868B118E128E91
:100CE000138E148EEAECF1E0108281E0818382ECB5
:100CF00092E093838283158214829783868341E0F6
:100D000050E0518740879387828722E030E0358723
:100D1000248715A614A697878687118A108A938B35
:100D2000828B558B448B978B868B318F208F86E0FF
:100D300090E093A782A7E2ECF1E01482158216827C
:100D4000178210821182128213820895789484B5DA
:100D5000826084BD84B5816084BD85B5826085BDB7
:100D600085B5816085BD80916E00816080936E0045
:100D70001092810080918100826080938100809137
:100D800081008160809381008091800081608093E8
:100D900080008091B10084608093B1008091B000A8
:100DA00081608093B00080917A00846080937A00A3
:100DB00080917A00826080937A0080917A008160CD
:100DC00080937A0080917A00806880937A001092F4
:100DD000C100E0913501F091360182E08083E0911D
:100DE0003101F09132011082E0913301F091340130
:100DF0008FEC808310923D01E0913901F0913A012E
:100E000086E08083E0913701F09138018081806134
:100E10008083E0913701F091380180818860808380
:100E2000E0913701F0913801808180688083E09102
:100E30003701F091380180818F7D808310921F01EE
:100E400010922001109221011092220191EA692E44
:100E500090E0792ECDE8D0E009E710E020E0E22E26
:100E600020E0F22E80E00E94C1014C0181E00E944E
:100E7000C1015C0182E00E94C1016C01F301849117
:100E8000FE019491F80124912111B3C080912301B6
:100E900090912401019690932401809323018091E5
:100EA0002301909124010297A1F464E082EC91E087
:100EB0000E945B0268EC70E080E090E00E94F70125
:100EC00064E082EC91E00E945B0210922401109297
:100ED0002301F5EF8F16F1E09F0694F00E94C10305
:100EE0006CE474E080E090E00E94A8026A567F4FB4
:100EF0008F4F9F4F0E94F7018091CB010E9482008B
:100F000025EFA21621E0B20634F182EC91E00E94B6
:100F10007B0268EC70E080E090E00E94F7014CE317
:100F20006BE682EC91E00E942A0261E082EC91E0A3
:100F30000E945B0264E670E080E090E00E94F701AE
:100F400061E082EC91E00E945B0242EE62EE82EC94
:100F500091E00E942A028FB7F89480901B01909034
:100F60001C01A0901D01B0901E018FBF85EFC81617
:100F700081E0D80694F180911F0190912001A09109
:100F80002101B0912201B501A401481B590B6A0B44
:100F90007B0B413C57426940710528F4892B8A2B11
:100FA0008B2B09F05DC00E94C10364EF71E080E00B
:100FB00090E00E94A80262517D4F8F4F9F4F0E9488
:100FC000F7018091CA010E94820080921F019092D5
:100FD0002001A0922101B0922201E114F10409F450
:100FE00041CF0E941E01882309F43CCF0E940000DB
:100FF00039CF882339F08330E1F088F48130F9F07B
:10100000823009F1E22FF0E0EE0FFF1FE859FF4FA9
:10101000A591B4918C91982309F438CF40CF8730B3
:10102000A9F08830C9F0843069F7809180008F7D05
:1010300003C0809180008F7780938000E3CF84B5D8
:101040008F7784BDDFCF84B58F7DFBCF8091B000DB
:101050008F778093B000D6CF8091B0008F7DF9CF8D
:101060000E94C103B2CF8F929F92AF92BF92CF9254
:10107000DF92EF92FF92CF93DF93EC016881798149
:101080008A819B81611571058105910521F464E2D6
:1010900079ED8BE597E02DE133EF41E050E00E94E0
:1010A000D70849015A019B01AC01A7EAB1E40E94AB
:1010B000F6086B017C01ACEEB4EFA50194010E942F
:1010C0000409C60ED71EE81EF91EF7FE06C081E011
:1010D000C81AD108E10880E8F80AC882D982EA82F1
:1010E000FB82C701B6019F77DF91CF91FF90EF9010
:1010F000DF90CF90BF90AF909F908F9008958F9288
:101100009F92AF92BF92CF92DF92EF92FF92609147
:10111000000170910101809102019091030161151C
:1011200071058105910521F464E279ED8BE597E085
:101130002DE133EF41E050E00E94D70849015A0108
:101140009B01AC01A7EAB1E40E94F6086B017C01A7
:10115000ACEEB4EFA50194010E940409C60ED71E9F
:10116000E81EF91EF7FE06C081E0C81AD108E108A2
:1011700080E8F80AC0920001D0920101E0920201D9
:10118000F0920301C701B6019F77FF90EF90DF90C7
:10119000CF90BF90AF909F908F9008956093000183
:1011A0007093010180930201909303010895052E2D
:1011B00097FB1EF400940E94EE0857FD07D00E9492
:1011C000090907FC03D04EF40C94EE0850954095A5
:1011D000309521953F4F4F4F5F4F089590958095E3
:1011E000709561957F4F8F4F9F4F08950E942B09F7
:1011F000A59F900DB49F900DA49F800D911D11246B
:101200000895B7FF0C94F6080E94F608821B930B12
:101210000895A1E21A2EAA1BBB1BFD010DC0AA1F37
:10122000BB1FEE1FFF1FA217B307E407F50720F04F
:10123000A21BB30BE40BF50B661F771F881F991FCA
:101240001A9469F760957095809590959B01AC0113
:10125000BD01CF010895A29FB001B39FC001A39F1C
:10126000700D811D1124911DB29F700D811D1124DF
:10127000911D0895EE0FFF1F0590F491E02D099444
:04128000F894FFCF10
:1012840001000000000000005401B400E100A101CD
:061294001201F00004014C
:00000001FF
