:020000040000FA
:100000000C9458000C9480000C9480000C94800098
:100010000C9480000C9480000C9480000C94800060
:100020000C9480000C9480000C9480000C94800050
:100030000C9480000C9480000C9480000C94800040
:100040000C9446060C9480000C9414060C94EE0557
:100050000C9480000C9480000C9480000C94800020
:100060000C9480000C948000000000002300260007
:10007000290004040404040404040202020202022B
:10008000030303030303010204081020408001025C
:1000900004081020010204081020000000080002DB
:1000A00001000003040700000000000000009006AB
:1000B00011241FBECFEFD8E0DEBFCDBF11E0A0E01E
:1000C000B1E0E6E0F4E102C005900D92A631B1077F
:1000D000D9F722E0A6E1B1E001C01D92A430B20739
:1000E000E1F710E0C8E5D0E004C02197FE010E94CE
:1000F000FB09C735D107C9F70E94F6060C94010A1F
:100100000C940000CF93C82F8091F8019091F901D1
:10011000DC01AA0FBB1FAA0FBB1FA053BE4F880F45
:10012000991F880F991FFC01E453FE4F0280F38151
:10013000E02D8D919C910995CC23A1F08091F8013F
:100140009091F90101969093F9018093F801209123
:10015000F6013091F7018217930724F01092F9010C
:100160001092F801CF910895AF92BF92CF92DF9293
:10017000EF92FF920F931F93CF93DF936C017B015C
:100180008B01040F151FEB015E01AE18BF08C017ED
:10019000D10759F06991D601ED91FC910190F08160
:1001A000E02DC6010995892B79F7C501DF91CF9123
:1001B0001F910F91FF90EF90DF90CF90BF90AF9085
:1001C0000895FC01538D448D252F30E0842F90E05D
:1001D000821B930B541710F0CF9608950197089542
:1001E000FC01918D828D981761F0A28DAE0FBF2F0B
:1001F000B11D5D968C91928D9F5F9F73928F90E061
:1002000008958FEF9FEF0895FC01918D828D9817CF
:1002100031F0828DE80FF11D858D90E008958FEF0C
:100220009FEF0895FC01918D228D892F90E0805CD5
:100230009F4F821B91098F739927089587E291E060
:100240000E94120121E0892B09F420E0822F0895F9
:1002500080E090E0892B29F00E941E0181110C940E
:1002600000000895FC01A48DA80FB92FB11DA35A59
:10027000BF4F2C91848D90E001968F739927848FC6
:10028000A689B7892C93A089B1898C9183708064E9
:100290008C93938D848D981306C00288F389E02D8A
:1002A00080818F7D80830895EF92FF920F931F933B
:1002B000CF93DF93EC0181E0888F9B8D8C8D981319
:1002C0001AC0E889F989808185FF15C09FB7F89425
:1002D000EE89FF896083E889F98980818370806471
:1002E00080839FBF81E090E0DF91CF911F910F91BC
:1002F000FF90EF900895F62E0B8D10E00F5F1F4FCB
:100300000F731127E02E8C8D8E110CC00FB607FCD9
:10031000FACFE889F989808185FFF5CFCE010E9467
:100320003201F1CFEB8DEC0FFD2FF11DE35AFF4FA2
:10033000F0829FB7F8940B8FEA89FB8980818062F5
:10034000CFCFCF93DF93EC01888D8823B9F0AA89B2
:10035000BB89E889F9898C9185FD03C0808186FD80
:100360000DC00FB607FCF7CF8C9185FFF2CF8081CF
:1003700085FFEDCFCE010E943201E9CFDF91CF9111
:100380000895806480937C0080917A0080648093DB
:100390007A0080917A0086FDFCCF80917800909160
:1003A000790008953FB7F894809117019091180152
:1003B000A0911901B0911A0126B5A89B05C02F3F45
:1003C00019F00196A11DB11D3FBFBA2FA92F982F7B
:1003D0008827BC01CD01620F711D811D911D42E076
:1003E000660F771F881F991F4A95D1F708958F923E
:1003F0009F92AF92BF92CF92DF92EF92FF926B01EA
:100400007C010E94D2014B015C01C114D104E104C2
:10041000F104B9F00E94D201681979098A099B098F
:10042000683E73408105910580F321E0C21AD1082E
:10043000E108F10888EE880E83E0981EA11CB11C2B
:10044000E4CFFF90EF90DF90CF90BF90AF909F9060
:100450008F900895EF92FF920F931F93CF93DF93A6
:10046000EC0169834A8318820EE110E07C0184E08C
:10047000E80EF11C44E050E0BE0187E291E00E94EA
:10048000B40044E050E0B70187E291E00E94B4007C
:100490000150110979F7188219821A821B8264E6C9
:1004A00070E080E090E0DF91CF911F910F91FF907D
:1004B000EF900C94F701CF93DF93EC01688344E055
:1004C00050E0BC0187E291E00E94B400BE016C5F85
:1004D0007F4F44E050E087E291E00E94B400188230
:1004E00019821A821B8264EF71E080E090E0DF9154
:1004F000CF910C94F701EF92FF920F931F93CF933C
:10050000DF93EC0188E889838A83188202E310E094
:100510007E0184E0E80EF11C44E050E0BE0187E279
:1005200091E00E94B40044E050E0B70187E291E01E
:100530000E94B4000150110979F7188219821A82B9
:100540001B82DF91CF911F910F91FF90EF90089543
:10055000CF92DF92EF92FF926B017C01C114D10424
:10056000E104F10441F00E944009A70196010E94B4
:1005700098096B017C01C701B601FF90EF90DF90F5
:10058000CF90089584EC91E00E947B0268EC70E0CB
:1005900080E090E00E94F7014CE36FE684EC91E08C
:1005A0000E942A0261E084EC91E00E945B0261E01B
:1005B00084EC91E00E945B0261E084EC91E00E9497
:1005C0005B0261E084EC91E00E945B0261E084ECFC
:1005D00091E00E945B0261E084EC91E00E945B028A
:1005E00061E084EC91E00E945B0261E084EC91E0C8
:1005F0000E945B0261E084EC91E00E945B0261E09A
:1006000084EC91E00E945B0261E084EC91E00E9446
:100610005B0261E084EC91E00E945B0261E084ECAB
:1006200091E00E945B0261E084EC91E00E945B0239
:1006300061E084EC91E00E945B0261E084EC91E077
:100640000E945B0261E084EC91E00E945B0261E049
:1006500084EC91E00E945B0261E084EC91E00E94F6
:100660005B0260ED77E080E090E00E94F7014FECE4
:100670006FEF84EC91E00E942A026CED75E080E05F
:1006800090E00E94F70161E084EC91E00E945B023F
:1006900043E061EA84EC91E00E942A0268EC70E099
:1006A00080E090E00E94A80268517C4F8F4F9F4FDE
:1006B0000E94F70161E084EC91E00E945B0268EC2B
:1006C00070E080E090E00E94A80268517C4F8F4F5C
:1006D0009F4F0E94F7014CE060E084EC91E00E94A3
:1006E0002A0268EC70E080E090E00E94A802685165
:1006F0007C4F8F4F9F4F0E94F70161E084EC91E0A7
:100700000E945B0268EC70E080E090E00E94A8022A
:1007100068517C4F8F4F9F4F0E94F7014EE06CEF66
:1007200084EC91E00E942A0268EC70E080E090E0A6
:100730000E94A80268517C4F8F4F9F4F0E94F70183
:1007400061E084EC91E00E945B0268EC70E080E084
:1007500090E00E94A80268517C4F8F4F9F4F0E94EB
:10076000F70145E163E684EC91E00E942A0268EC1F
:1007700070E080E090E00E94A80268517C4F8F4FAB
:100780009F4F0E94F70161E084EC91E00E945B02C0
:1007900068EC70E080E090E00E94A80268517C4F15
:1007A0008F4F9F4F0E94F70149EE60ED84EC91E07E
:1007B0000E942A0268EC70E080E090E00E94A802AB
:1007C00068517C4F8F4F9F4F0E94F70161E084EC8E
:1007D00091E00E945B0260EE7EE280E090E00E9489
:1007E000F7014DE06DE284EC91E00E942A0268EC92
:1007F00070E080E090E00E94A80268517C4F8F4F2B
:100800009F4F0E94F70161E084EC91E00E945B023F
:1008100068EC70E080E090E00E94A80268517C4F94
:100820008F4F9F4F0E94F7014EEE68ED84EC91E0F0
:100830000E942A0261E084EC91E00E945B0268EC75
:1008400070E080E090E00E94A80268517C4F8F4FDA
:100850009F4F0E94F70140E064E084EC91E00E9429
:100860002A0261E084EC91E00E945B0260E177E2A1
:1008700080E090E00E94F70168EC70E080E090E09A
:100880000E94A80268517C4F8F4F9F4F0E94F70132
:100890004CE160E284EC91E00E942A0268EC70E096
:1008A00080E090E00E94A80268517C4F8F4F9F4FDC
:1008B0000E94F70161E084EC91E00E945B0268EC29
:1008C00070E080E090E00E94A80268517C4F8F4F5A
:1008D0009F4F0E94F70140E067E084EC91E00E94A6
:1008E0002A0268EC70E080E090E00E94A802685163
:1008F0007C4F8F4F9F4F0E94F70161E084EC91E0A5
:100900000E945B0268EC70E080E090E00E94A80228
:1009100068517C4F8F4F9F4F0E94F70147EC65E075
:1009200084EC91E00E942A0268EC70E080E090E0A4
:100930000E94A80268517C4F8F4F9F4F0E94F70181
:1009400061E084EC91E00C945B02FF920F931F93A3
:10095000CF93DF93CDB7DEB728970FB6F894DEBFFD
:100960000FBECDBF8C011D821E821F821886198288
:100970001A821B821C82CE0101960E947B024BE0F0
:100980006EE6CE0101960E942A0268EC70E080E0DB
:1009900090E00E94A8026C507E4F8F4F9F4F0E94A4
:1009A000F70161E0CE0101960E945B0261E0CE0199
:1009B00001960E945B0260ED77E080E090E00E948B
:1009C000F70147E061EACE0101960E942A0268EC35
:1009D00070E080E090E00E94A8026C507E4F8F4F44
:1009E0009F4F0E94F70161E0CE0101960E945B02D9
:1009F00068EC70E080E090E00E94A8026C507E4FAE
:100A00008F4F9F4F0E94F701402F440F400F4C5FC4
:100A100060E0CE0101960E942A0268EC70E080E05E
:100A200090E00E94A8026C507E4F8F4F9F4F0E9413
:100A3000F70161E0CE0101960E945B0260E971E07E
:100A400080E090E00E94A802645D7E4F8F4F9F4F30
:100A50000E94F701802F880F880FF02EF81A47E2C6
:100A60004F0D6FE5CE0101960E942A0260E971E008
:100A700080E090E00E94A802645D7E4F8F4F9F4F00
:100A80000E94F70161E0CE0101960E945B0260E9DD
:100A900071E080E090E00E94A802645D7E4F8F4F7D
:100AA0009F4F0E94F70149EE60EDCE0101960E9432
:100AB0002A0260E971E080E090E00E94A802645D93
:100AC0007E4F8F4F9F4F0E94F70161E0CE0101964C
:100AD0000E945B026CED75E080E090E00E94F701FF
:100AE00045EE60E3CE0101960E942A0264E670E0C2
:100AF00080E090E00E94A8026C597F4F8F4F9F4F7B
:100B00000E94F70161E0CE0101960E945B0249E17B
:100B10006DE9CE0101960E942A0264E670E080E051
:100B200090E00E94A8026C597F4F8F4F9F4F0E9408
:100B3000F70161E0CE0101960E945B020F5F1F4F3B
:100B4000402F440F400F64E0CE0101960E942A021C
:100B500064E670E080E090E00E94A8026C597F4F4C
:100B60008F4F9F4F0E94F70161E0CE0101960E94D6
:100B70005B0268EE73E080E090E00E94A80268519A
:100B80007C4F8F4F9F4F0E94F70161E0CE0101968D
:100B90000E945B024CEF4F0D62E3CE0101960E9472
:100BA0002A0264E670E080E090E00E94A8026C599E
:100BB0007F4F8F4F9F4F0E94F70161E0CE0101965A
:100BC0000E945B0228960FB6F894DEBF0FBECDBF21
:100BD000DF91CF911F910F91FF9008951F920F9277
:100BE0000FB60F9211242F933F934F935F936F9300
:100BF0007F938F939F93AF93BF93EF93FF9387E27E
:100C000091E00E943201FF91EF91BF91AF919F91CE
:100C10008F917F916F915F914F913F912F910F90A5
:100C20000FBE0F901F9018951F920F920FB60F9244
:100C300011242F938F939F93EF93FF93E0913701AC
:100C4000F09138018081E0913D01F0913E0182FDFB
:100C50001BC09081809140018F5F8F732091410173
:100C6000821741F0E0914001F0E0E95DFE4F958F81
:100C700080934001FF91EF919F918F912F910F9061
:100C80000FBE0F901F9018958081F4CF1F920F9286
:100C90000FB60F9211242F933F938F939F93AF938F
:100CA000BF9380911B0190911C01A0911D01B091F7
:100CB0001E013091160123E0230F2D3758F50196C0
:100CC000A11DB11D2093160180931B0190931C015F
:100CD000A0931D01B0931E018091170190911801FE
:100CE000A0911901B0911A010196A11DB11D809327
:100CF000170190931801A0931901B0931A01BF91A5
:100D0000AF919F918F913F912F910F900FBE0F90B8
:100D10001F90189526E8230F0296A11DB11DD2CF72
:100D2000E7E2F1E01382128288EE93E0A0E0B0E007
:100D300084839583A683B78388E091E09183808341
:100D400085EC90E09587848784EC90E09787868790
:100D500080EC90E0918B808B81EC90E0938B828B88
:100D600082EC90E0958B848B86EC90E0978B868B61
:100D7000118E128E138E148EECECF1E0108281E055
:100D8000818385EA94E0938382831582148297831A
:100D9000868341E050E0518740879387828722E035
:100DA00030E03587248715A614A697878687118A91
:100DB000108A938B828B558B448B978B868B318FCC
:100DC000208F86E090E093A782A716A617A610AA08
:100DD00011AA12AA13AAE4ECF1E014821582168279
:100DE000178210821182128213820895789484B53A
:100DF000826084BD84B5816084BD85B5826085BD17
:100E000085B5816085BD80916E00816080936E00A4
:100E10001092810080918100826080938100809196
:100E20008100816080938100809180008160809347
:100E300080008091B10084608093B1008091B00007
:100E400081608093B00080917A00846080937A0002
:100E500080917A00826080937A0080917A0081602C
:100E600080937A0080917A00806880937A00109253
:100E7000C100E0913701F091380182E08083E09178
:100E80003301F09134011082E0913501F091360187
:100E90008FEC808310923F01E0913B01F0913C0187
:100EA00086E08083E0913901F0913A018081806190
:100EB0008083E0913901F0913A01808188608083DC
:100EC000E0913901F0913A01808180688083E0915E
:100ED0003901F0913A0180818F7D808368EB7BE05E
:100EE00080E090E00E94F70110921F011092200113
:100EF00010922101109222012DE8222E20E0322EA4
:100F000039E7432E30E0532E40E0642E40E0742E4B
:100F100054E6E52EF12C00E21EE480E00E94C101BF
:100F20004C0181E00E94C1015C0182E00E94C1018C
:100F30006C01E1EAF0E09491F1018491F2012491D5
:100F4000D0E0C0E02223E9F0992359F0933009F46E
:100F5000ECC008F0DFC0913009F4EDC0923009F424
:100F6000EEC0E22FF0E0EE0FFF1FE859FF4FA59112
:100F7000B4919C91892321E090E009F420E0C22FF4
:100F8000D92F8091250190912601843691050CF48A
:100F9000E3C001979093260180932501CD2B49F45E
:100FA00080912301909124010196909324018093D4
:100FB000230180912301909124010297A1F464E020
:100FC00084EC91E00E945B0268EC70E080E090E0CD
:100FD0000E94F70164E084EC91E00E945B021092B1
:100FE000240110922301F5EF8F16F1E09F0604F122
:100FF0000E94C2026CE474E080E090E00E94A802CB
:101000006A567F4F8F4F9F4F0E94F7018091CD010D
:101010000E948200E091F801F091F901E453FE4F43
:1010200086A5882309F4C7C01093260100932501E3
:1010300025EFA21621E0B20654F00E94C202809170
:10104000CC010E94820010932601009325018FB7E6
:10105000F89480901B0190901C01A0901D01B0900D
:101060001E018FBF85EFC81681E0D8060CF440C082
:1010700080911F0190912001A0912101B091220146
:10108000B501A401481B590B6A0B7B0B413C57422D
:101090006940710528F4892B8A2B8B2B09F095C0A8
:1010A0000E94C20264EF71E080E090E00E94A8021A
:1010B00062517D4F8F4F9F4F0E94F7018091CC016D
:1010C0000E94820080921F0190922001A092210133
:1010D000B0922201E091F801F091F901E453FE4F42
:1010E00086A5882309F46CC010932601009325017E
:1010F00061E070E080E090E00E94F701611471040B
:1011000009F40BCF0E941E01882309F406CF0E9428
:10111000000003CF9730B1F09830D1F0943009F04F
:1011200020CF909180009F7D03C0909180009F7799
:101130009093800016CF94B59F7794BD12CF94B54D
:101140009F7DFBCF9091B0009F779093B00009CF27
:101150009091B0009F7DF9CF892B09F41FCF84ECCB
:1011600091E00E947B0268EE73E080E090E00E94D4
:10117000F7014EE26FE684EC91E00E942A0262EEF3
:1011800074E080E090E00E94F70161E084EC91E07F
:101190000E945B0264EF71E080E090E00E94F70142
:1011A00042EE62EE84EC91E00E942A021092260147
:1011B00010922501F3CEF0922601E092250138CF5E
:1011C000F0922601E092250193CF0E94C202809204
:1011D0001F0190922001A0922101B0922201109251
:1011E00026011092250184CF8F929F92AF92BF92D9
:1011F000CF92DF92EF92FF92CF93DF93EC01688161
:1012000079818A819B81611571058105910521F4A0
:1012100064E279ED8BE597E02DE133EF41E050E0BA
:101220000E94980949015A019B01AC01A7EAB1E467
:101230000E94B7096B017C01ACEEB4EFA5019401EB
:101240000E94C509C60ED71EE81EF91EF7FE06C08D
:1012500081E0C81AD108E10880E8F80AC882D9827A
:10126000EA82FB82C701B6019F77DF91CF91FF90A1
:10127000EF90DF90CF90BF90AF909F908F900895A8
:101280008F929F92AF92BF92CF92DF92EF92FF9296
:101290006091000170910101809102019091030120
:1012A000611571058105910521F464E279ED8BE505
:1012B00097E02DE133EF41E050E00E9498094901A9
:1012C0005A019B01AC01A7EAB1E40E94B7096B0186
:1012D0007C01ACEEB4EFA50194010E94C509C60ED5
:1012E000D71EE81EF91EF7FE06C081E0C81AD10815
:1012F000E10880E8F80AC0920001D0920101E09272
:101300000201F0920301C701B6019F77FF90EF90B1
:10131000DF90CF90BF90AF909F908F900895609393
:1013200000017093010180930201909303010895DD
:10133000052E97FB1EF400940E94AF0957FD07D0BD
:101340000E94CA0907FC03D04EF40C94AF095095D3
:101350004095309521953F4F4F4F5F4F08959095A1
:101360008095709561957F4F8F4F9F4F08950E9494
:10137000EC09A59F900DB49F900DA49F800D911D29
:1013800011240895B7FF0C94B7090E94B709821B76
:10139000930B0895A1E21A2EAA1BBB1BFD010DC0E1
:1013A000AA1FBB1FEE1FFF1FA217B307E407F50715
:1013B00020F0A21BB30BE40BF50B661F771F881FF1
:1013C000991F1A9469F760957095809590959B0187
:1013D000AC01BD01CF010895A29FB001B39FC00130
:1013E000A39F700D811D1124911DB29F700D811D51
:1013F0001124911D0895EE0FFF1F0590F491E02D2B
:101400000994F894FFCF010000000000000054018F
:0C141000B400E100A1011201F000040191
:107E0000112484B714BE81FFF0D085E080938100F7
:107E100082E08093C00088E18093C10086E0809377
:107E2000C20080E18093C4008EE0C9D0259A86E02C
:107E300020E33CEF91E0309385002093840096BBD3
:107E4000B09BFECF1D9AA8958150A9F7CC24DD24C4
:107E500088248394B5E0AB2EA1E19A2EF3E0BF2EE7
:107E6000A2D0813461F49FD0082FAFD0023811F036
:107E7000013811F484E001C083E08DD089C08234E0
:107E800011F484E103C0853419F485E0A6D080C0E4
:107E9000853579F488D0E82EFF2485D0082F10E0AE
:107EA000102F00270E291F29000F111F8ED06801E7
:107EB0006FC0863521F484E090D080E0DECF843638
:107EC00009F040C070D06FD0082F6DD080E0C81688
:107ED00080E7D80618F4F601B7BEE895C0E0D1E017
:107EE00062D089930C17E1F7F0E0CF16F0E7DF06D8
:107EF00018F0F601B7BEE89568D007B600FCFDCFD4
:107F0000A601A0E0B1E02C9130E011968C91119780
:107F100090E0982F8827822B932B1296FA010C0160
:107F200087BEE89511244E5F5F4FF1E0A038BF0790
:107F300051F7F601A7BEE89507B600FCFDCF97BE46
:107F4000E89526C08437B1F42ED02DD0F82E2BD052
:107F50003CD0F601EF2C8F010F5F1F4F84911BD097
:107F6000EA94F801C1F70894C11CD11CFA94CF0C13
:107F7000D11C0EC0853739F428D08EE10CD085E9AC
:107F80000AD08FE07ACF813511F488E018D01DD067
:107F900080E101D065CF982F8091C00085FFFCCF94
:107FA0009093C60008958091C00087FFFCCF809118
:107FB000C00084FD01C0A8958091C6000895E0E648
:107FC000F0E098E1908380830895EDDF803219F02E
:107FD00088E0F5DFFFCF84E1DECF1F93182FE3DFCA
:107FE0001150E9F7F2DF1F91089580E0E8DFEE27F6
:047FF000FF270994CA
:027FFE00040479
:00000001FF
