:020000040000FA
:100000000C9458000C9480000C9480000C94800098
:100010000C9480000C9480000C9480000C94800060
:100020000C9480000C9480000C9480000C94800050
:100030000C9480000C9480000C9480000C94800040
:100040000C94DE0C0C9480000C94AC0C0C94860C7C
:100050000C9480000C9480000C9480000C94800020
:100060000C9480000C948000000000002300260007
:10007000290004040404040404040202020202022B
:10008000030303030303010204081020408001025C
:1000900004081020010204081020000000080002DB
:1000A0000100000304070000000000000000280D0C
:1000B00011241FBECFEFD8E0DEBFCDBF11E0A0E01E
:1000C000B1E0ECE9F2E202C005900D92A631B10771
:1000D000D9F722E0A6E1B1E001C01D92AC33B2072E
:1000E000E1F710E0C8E5D0E004C02197FE010E94CE
:1000F0004611C735D107C9F70E94B70D0C944C11B2
:100100000C940000AF92BF92CF92DF92EF92FF92D9
:100110000F931F93CF93DF936C017B018B01040F2F
:10012000151FEB015E01AE18BF08C017D10759F0CB
:100130006991D601ED91FC910190F081E02DC6010D
:100140000995892B79F7C501DF91CF911F910F9107
:10015000FF90EF90DF90CF90BF90AF900895DF9227
:10016000EF92FF920F931F93CF93DF9300D000D0B5
:10017000CDB7DEB78C0181E0F801808311828BEF6F
:1001800082838EE1E82EF12CDD24D394D9821A8269
:100190001B821C8244E050E0B80187E291E00E949B
:1001A000820044E050E0BE016F5F7F4F87E291E044
:1001B0000E948200F1E0EF1AF10841F7F801108285
:1001C000118212820F900F900F900F90DF91CF91BC
:1001D0001F910F91FF90EF90DF900895FC01538DD8
:1001E000448D252F30E0842F90E0821B930B541711
:1001F00010F0CF96089501970895FC01918D828D9E
:10020000981761F0A28DAE0FBF2FB11D5D968C9136
:10021000928D9F5F9F73928F90E008958FEF9FEF75
:100220000895FC01918D828D981731F0828DE80F31
:10023000F11D858D90E008958FEF9FEF0895FC01EB
:10024000918D228D892F90E0805C9F4F821B9109B8
:100250008F739927089587E291E00E941F0121E0A2
:10026000892B09F420E0822F089580E090E0892B0B
:1002700029F00E942B0181110C9400000895FC01CB
:10028000A48DA80FB92FB11DA35ABF4F2C91848DF7
:1002900090E001968F739927848FA689B7892C9354
:1002A000A089B1898C91837080648C93938D848DA7
:1002B000981306C00288F389E02D80818F7D8083AA
:1002C0000895EF92FF920F931F93CF93DF93EC016A
:1002D00081E0888F9B8D8C8D98131AC0E889F989ED
:1002E000808185FF15C09FB7F894EE89FF896083F0
:1002F000E889F98980818370806480839FBF81E071
:1003000090E0DF91CF911F910F91FF90EF900895B2
:10031000F62E0B8D10E00F5F1F4F0F731127E02E8D
:100320008C8D8E110CC00FB607FCFACFE889F989C5
:10033000808185FFF5CFCE010E943F01F1CFEB8D8B
:10034000EC0FFD2FF11DE35AFF4FF0829FB7F89499
:100350000B8FEA89FB8980818062CFCFCF93DF93B7
:10036000EC01888D8823B9F0AA89BB89E889F989CD
:100370008C9185FD03C0808186FD0DC00FB607FC02
:10038000F7CF8C9185FFF2CF808185FFEDCFCE0135
:100390000E943F01E9CFDF91CF910895806480935F
:1003A0007C0080917A00806480937A0080917A004A
:1003B00086FDFCCF809178009091790008953FB739
:1003C000F8948091170190911801A0911901B091B2
:1003D0001A0126B5A89B05C02F3F19F00196A11D53
:1003E000B11D3FBFBA2FA92F982F8827BC01CD017F
:1003F000620F711D811D911D42E0660F771F881FDE
:10040000991F4A95D1F708958F929F92AF92BF920C
:10041000CF92DF92EF92FF926B017C010E94DF018D
:100420004B015C01C114D104E104F104B9F00E9454
:10043000DF01681979098A099B09683E73408105C3
:10044000910580F321E0C21AD108E108F10888EE95
:10045000880E83E0981EA11CB11CE4CFFF90EF90A2
:10046000DF90CF90BF90AF909F908F900895EF92C4
:10047000FF920F931F93CF93DF93EC0169834A831D
:1004800018820EE110E07C0184E0E80EF11C44E0EB
:1004900050E0BE0187E291E00E94820044E050E01B
:1004A000B70187E291E00E9482000150110979F7BB
:1004B000188219821A821B8264E670E080E090E064
:1004C000DF91CF911F910F91FF90EF900C94040258
:1004D0000F931F93CF93DF938C01FC01C4A5D5A587
:1004E000662341F0219682A593A5C817D90714F079
:1004F000D0E0C0E0DE011196AA0FBB1FAA0FBB1F00
:10050000A00FB11FFE01EE0FFF1FEE0FFF1FE00F48
:10051000F11F0280F381E02D8D919C910995F801E6
:10052000D5A7C4A7DF91CF911F910F910895CF93C5
:10053000DF93EC01688344E050E0BC0187E291E086
:100540000E948200BE016C5F7F4F44E050E087E272
:1005500091E00E948200188219821A821B8264EF45
:1005600071E080E090E0DF91CF910C940402EF9273
:10057000FF920F931F93CF93DF93EC0188E8898359
:100580008A83188202E310E07E0184E0E80EF11C09
:1005900044E050E0BE0187E291E00E94820044E026
:1005A00050E0B70187E291E00E94820001501109FA
:1005B00079F7188219821A821B82DF91CF911F91DD
:1005C0000F91FF90EF90089584EC91E00E94B702A4
:1005D00068EE73E080E090E00E94040244E062E78D
:1005E00084EC91E00E94370268EE73E080E090E0D6
:1005F0000E94040261E084EC91E00E94970268EEA0
:1006000073E080E090E00E9404024BE16EEE84EC27
:1006100091E00E94370268EE73E080E090E00E9473
:10062000040261E084EC91E00E94970268EE73E0BE
:1006300080E090E00E9404024EE164EF84EC91E0DF
:100640000E94370264E670E080E090E00E940402BD
:1006500061E084EC91E00E94970268EE73E080E034
:1006600090E00E9404024FEE6AEE84EC91E00E945A
:10067000370268EE73E080E090E00E94040261E0DF
:1006800084EC91E00E94970268EE73E080E090E0D5
:100690000E9404024BED68EE84EC91E00E94370268
:1006A00068EE73E080E090E00E94040261E084EC78
:1006B00091E00E94970268EE73E080E090E00E9473
:1006C000040246E36EE284EC91E00E94370268EE99
:1006D00073E080E090E00E94040261E084EC91E02D
:1006E0000E94970268EE73E080E090E00E940402AE
:1006F0004FEE6AEE84EC91E00E94370268EE73E000
:1007000080E090E00E94040261E084EC91E00E94AD
:10071000970268EE73E080E090E00E94040248EDEA
:1007200065E384EC91E00E94370268EE73E080E0BC
:1007300090E00E94040261E084EC91E00C94970246
:10074000FC01148215821682178210821182128295
:1007500013820895CF92DF92EF92FF926B017C019A
:10076000C114D104E104F10441F00E948B10A701EF
:1007700096010E94E3106B017C01C701B601FF9056
:10078000EF90DF90CF90089584EC91E00E94B70243
:1007900043E36BE684EC91E00E94370268EC70E082
:1007A00080E090E00E94AA0368517C4F8F4F9F4FDA
:1007B0000E94040261E084EC91E00E94970268ECE0
:1007C00070E080E090E00E94AA0368517C4F8F4F58
:1007D0009F4F0E9404024EEE68ED84EC91E00E946F
:1007E000370261E084EC91E00E94970268EC70E0CF
:1007F00080E090E00E94AA0368517C4F8F4F9F4F8A
:100800000E94040240E064E084EC91E00E94370220
:1008100061E084EC91E00E94970260E177E280E081
:1008200090E00E94040268EC70E080E090E00E949A
:10083000AA0368517C4F8F4F9F4F0E9404024CE1E6
:1008400060E284EC91E00E94370268EC70E080E0A6
:1008500090E00E94AA0368517C4F8F4F9F4F0E94E7
:10086000040261E084EC91E00E94970268EC70E081
:1008700080E090E00E94AA0368517C4F8F4F9F4F09
:100880000E94040240E067E084EC91E00E9437029D
:1008900068EC70E080E090E00E94AA0368517C4F11
:1008A0008F4F9F4F0E94040261E084EC91E00E9410
:1008B000970268EC70E080E090E00E94AA03685123
:1008C0007C4F8F4F9F4F0E94040247EC65E084EC01
:1008D00091E00E94370268EC70E080E090E00E94B6
:1008E000AA0368517C4F8F4F9F4F0E94040261E022
:1008F00084EC91E00C94970284EC91E00E94B702A2
:1009000068EC70E080E090E00E9404024CE36FE647
:1009100084EC91E00E94370261E084EC91E00E9457
:10092000970261E084EC91E00E94970261E084EC20
:1009300091E00E94970261E084EC91E00E949702AE
:1009400061E084EC91E00E94970261E084EC91E028
:100950000E94970261E084EC91E00E94970261E0BE
:1009600084EC91E00E94970261E084EC91E00E94A7
:10097000970261E084EC91E00E94970261E084ECD0
:1009800091E00E94970261E084EC91E00E9497025E
:1009900061E084EC91E00E94970261E084EC91E0D8
:1009A0000E94970261E084EC91E00E94970261E06E
:1009B00084EC91E00E94970261E084EC91E00E9457
:1009C000970261E084EC91E00E94970261E084EC80
:1009D00091E00E94970268EE73E080E090E00E9450
:1009E00004024FEC6FEF84EC91E00E94370268EE56
:1009F00073E080E090E00E94040261E084EC91E00A
:100A00000E94970243E061EA84EC91E00E94370281
:100A100068EC70E080E090E00E94AA0368517C4F8F
:100A20008F4F9F4F0E94040261E084EC91E00E948E
:100A3000970268EC70E080E090E00E94AA036851A1
:100A40007C4F8F4F9F4F0E9404024CE060E084EC8B
:100A500091E00E94370268EC70E080E090E00E9434
:100A6000AA0368517C4F8F4F9F4F0E94040261E0A0
:100A700084EC91E00E94970268EC70E080E090E0E6
:100A80000E94AA0368517C4F8F4F9F4F0E9404021F
:100A90004EE06CEF84EC91E00E94370268EC70E06D
:100AA00080E090E00E94AA0368517C4F8F4F9F4FD7
:100AB0000E94040261E084EC91E00E94970268ECDD
:100AC00070E080E090E00E94AA0368517C4F8F4F55
:100AD0009F4F0E94040245E163E684EC91E00E948E
:100AE000370268EC70E080E090E00E94AA03685151
:100AF0007C4F8F4F9F4F0E94040261E084EC91E095
:100B00000E94970268EC70E080E090E00E94AA03E7
:100B100068517C4F8F4F9F4F0E94040249EE60ED59
:100B200084EC91E00E94370268EC70E080E090E095
:100B30000E94AA0368517C4F8F4F9F4F0E9404026E
:100B400061E084EC91E00E94970260EE7EE280E03A
:100B500090E00C940402CF93DF93CDB7DEB72897D3
:100B60000FB6F894DEBF0FBECDBFCE0101960E9436
:100B7000A003CE0101960E94B70260E971E080E017
:100B800090E00E94AA03645D7E4F8F4F9F4F0E94AA
:100B9000040244E062E7CE0101960E94370264E657
:100BA00070E080E090E00E94040261E0CE010196D6
:100BB0000E94970260E971E080E090E00E94AA0341
:100BC000645D7E4F8F4F9F4F0E9404024BE067EFA2
:100BD000CE0101960E94370264E670E080E090E06A
:100BE0000E94040261E0CE0101960E94970260E932
:100BF00071E080E090E00E94AA03645D7E4F8F4F19
:100C00009F4F0E9404024AEF66EACE0101960E94BD
:100C1000370264E670E080E090E00E94040261E048
:100C2000CE0101960E94970260E971E080E090E0B9
:100C30000E94AA03645D7E4F8F4F9F4F0E94040263
:100C40004BE16CEFCE0101960E94370264E670E042
:100C500080E090E00E94040261E0CE0101960E94D3
:100C6000970260E971E080E090E00E94AA03645D71
:100C70007E4F8F4F9F4F0E94040242E063E3CE01FC
:100C800001960E94370264E670E080E090E00E94E6
:100C9000040261E0CE0101960E94970260EE7EE2BE
:100CA00080E090E00E94040260E971E080E090E062
:100CB0000E94AA03645D7E4F8F4F9F4F0E940402E3
:100CC00045EE60E3CE0101960E94370264E670E0D3
:100CD00080E090E00E94040261E0CE0101960E9453
:100CE000970260E971E080E090E00E94AA03645DF1
:100CF0007E4F8F4F9F4F0E94040249E168EDCE0165
:100D000001960E94370264EF71E080E090E00E945B
:100D1000AA0362517D4F8F4F9F4F0E940402CE0164
:100D200001960E94AF0064EF71E080E090E00E94C5
:100D30000402CE0101960E94B70260E971E080E0F2
:100D400090E00E94AA03645D7E4F8F4F9F4F0E94E8
:100D500004024EE169E3CE0101960E94370264E687
:100D600070E080E090E00E94040261E0CE01019614
:100D70000E94970268EE73E080E090E00E94040217
:100D800040E068E0CE0101960E94370264E670E020
:100D900080E090E00E94040261E0CE0101960E9492
:100DA000970268E873E180E090E00E94040260E945
:100DB00071E080E090E00E94AA03645D7E4F8F4F57
:100DC0009F4F0E94040245E160E3CE0101960E941C
:100DD000370268EE73E080E090E00E94040261E078
:100DE000CE0101960E94970268EE73E080E090E0E9
:100DF0000E94040260E971E080E090E00E94AA0392
:100E0000645D7E4F8F4F9F4F0E94040243EF6DEC55
:100E1000CE0101960E94370268EE73E080E090E018
:100E20000E94040261E0CE0101960E94970264EFE5
:100E300071E080E090E00E940402CE0101960E94E1
:100E4000B70260E971E080E090E00E94AA03645D6F
:100E50007E4F8F4F9F4F0E9404024EE26FE6CE01FD
:100E600001960E94370262EE74E080E090E00E94FA
:100E7000040261E0CE0101960E94970264EF71E0E6
:100E800080E090E00E94040242EE62EECE01019604
:100E90000E94370228960FB6F894DEBF0FBECDBF72
:100EA000DF91CF910895CF93DF93CDB7DEB7289729
:100EB0000FB6F894DEBF0FBECDBFCE0101960E94E3
:100EC000A003CE0101960E94B70260E971E080E0C4
:100ED00090E00E94AA03645D7E4F8F4F9F4F0E9457
:100EE000040244E062E7CE0101960E94370264E604
:100EF00070E080E090E00E94040261E0CE01019683
:100F00000E94970260E971E080E090E00E94AA03ED
:100F1000645D7E4F8F4F9F4F0E9404024BE067EF4E
:100F2000CE0101960E94370264E670E080E090E016
:100F30000E94040261E0CE0101960E94970260E9DE
:100F400071E080E090E00E94AA03645D7E4F8F4FC5
:100F50009F4F0E9404024AEF66EACE0101960E946A
:100F6000370264E670E080E090E00E94040261E0F5
:100F7000CE0101960E94970260E971E080E090E066
:100F80000E94AA03645D7E4F8F4F9F4F0E94040210
:100F90004BE166E0CE0101960E94370264E670E004
:100FA00080E090E00E94040261E0CE0101960E9480
:100FB000970260E971E080E090E00E94AA03645D1E
:100FC0007E4F8F4F9F4F0E94040242E069E2CE01A4
:100FD00001960E94370264E670E080E090E00E9493
:100FE000040261E0CE0101960E94970260EE7EE26B
:100FF00080E090E00E94040260E971E080E090E00F
:101000000E94AA03645D7E4F8F4F9F4F0E9404028F
:1010100045EE60E3CE0101960E94370264E670E07F
:1010200080E090E00E94040261E0CE0101960E94FF
:10103000970260E971E080E090E00E94AA03645D9D
:101040007E4F8F4F9F4F0E94040249E168EDCE0111
:1010500001960E94370264EF71E080E090E00E9408
:10106000AA0362517D4F8F4F9F4F0E940402CE0111
:1010700001960E94AF0064EF71E080E090E00E9472
:101080000402CE0101960E94B70260E971E080E09F
:1010900090E00E94AA03645D7E4F8F4F9F4F0E9495
:1010A000040243E260E4CE0101960E94370264E646
:1010B00070E080E090E00E94040261E0CE010196C1
:1010C0000E94970260E971E080E090E00E94AA032C
:1010D000645D7E4F8F4F9F4F0E94040240E068E0A6
:1010E000CE0101960E94370264E670E080E090E055
:1010F0000E94040261E0CE0101960E94970268E519
:101100007BE180E090E00E94040260E971E080E011
:1011100090E00E94AA03645D7E4F8F4F9F4F0E9414
:10112000040240E169E2CE0101960E94370264E6C2
:1011300070E080E090E00E94040261E0CE01019640
:101140000E94970260E971E080E090E00E94AA03AB
:10115000645D7E4F8F4F9F4F0E94040243EF6DEC02
:10116000CE0101960E94370264E670E080E090E0D4
:101170000E94040261E0CE0101960E94970260ED98
:1011800077E080E090E00E94040245EE60E3CE014B
:1011900001960E94370264E670E080E090E00E94D1
:1011A000AA036C597F4F8F4F9F4F0E94040261E04A
:1011B000CE0101960E949702CE0101960E94B702CD
:1011C00060E971E080E090E00E94AA03645D7E4FD8
:1011D0008F4F9F4F0E9404024CE161E5CE010196C2
:1011E0000E94370264E670E080E090E00E94040212
:1011F00061E0CE0101960E94970240E068E0CE01D6
:1012000001960E94370264E670E080E090E00E9460
:10121000040261E0CE0101960E94970260E87EE33D
:1012200080E090E00E940402CE0101960E94B70285
:1012300060E971E080E090E00E94AA03645D7E4F67
:101240008F4F9F4F0E9404024EE26FE6CE0101963F
:101250000E94370262EE74E080E090E00E94040297
:1012600061E0CE0101960E94970264EF71E080E098
:1012700090E00E94040242EE62EECE0101960E94CE
:10128000370228960FB6F894DEBF0FBECDBFDF91B0
:10129000CF910895CF93DF93CDB7DEB728970FB6E0
:1012A000F894DEBF0FBECDBFCE0101960E94A00311
:1012B000CE0101960E94B70260E971E080E090E003
:1012C0000E94AA03645D7E4F8F4F9F4F0E940402CD
:1012D00044E062E7CE0101960E94370264E670E0C6
:1012E00080E090E00E94040261E0CE0101960E943D
:1012F000970260E971E080E090E00E94AA03645DDB
:101300007E4F8F4F9F4F0E9404024BE067EFCE014C
:1013100001960E94370264E670E080E090E00E944F
:10132000040261E0CE0101960E94970260E971E03B
:1013300080E090E00E94AA03645D7E4F8F4F9F4F34
:101340000E9404024AEF66EACE0101960E9437022B
:1013500064E670E080E090E00E94040261E0CE016B
:1013600001960E94970260E971E080E090E00E949F
:10137000AA03645D7E4F8F4F9F4F0E9404024BE192
:1013800066E0CE0101960E94370264E670E080E0DC
:1013900090E00E94040261E0CE0101960E94970253
:1013A00060E971E080E090E00E94AA03645D7E4FF6
:1013B0008F4F9F4F0E94040242E069E2CE010196E6
:1013C0000E94370264E670E080E090E00E94040230
:1013D00061E0CE0101960E94970260EE7EE280E01D
:1013E00090E00E94040260E971E080E090E00E94D9
:1013F000AA03645D7E4F8F4F9F4F0E94040245EE0B
:1014000060E3CE0101960E94370264E670E080E05E
:1014100090E00E94040261E0CE0101960E949702D2
:1014200060E971E080E090E00E94AA03645D7E4F75
:101430008F4F9F4F0E94040249E168EDCE01019653
:101440000E94370264EF71E080E090E00E94AA03FE
:1014500062517D4F8F4F9F4F0E940402CE01019633
:101460000E94AF0064EF71E080E090E00E9404020F
:10147000CE0101960E94B70260E971E080E090E041
:101480000E94AA03645D7E4F8F4F9F4F0E9404020B
:1014900045E160E4CE0101960E94370264E670E007
:1014A00080E090E00E94040261E0CE0101960E947B
:1014B000970260E971E080E090E00E94AA03645D19
:1014C0007E4F8F4F9F4F0E94040240E068E0CE01A4
:1014D00001960E94370264E670E080E090E00E948E
:1014E000040261E0CE0101960E94970268E57BE16B
:1014F00080E090E00E94040260E971E080E090E00A
:101500000E94AA03645D7E4F8F4F9F4F0E9404028A
:101510004EE169E2CE0101960E94370264E670E076
:1015200080E090E00E94040261E0CE0101960E94FA
:10153000970260E971E080E090E00E94AA03645D98
:101540007E4F8F4F9F4F0E94040243EF6DECCE0100
:1015500001960E94370264E670E080E090E00E940D
:10156000040261E0CE0101960E94970260ED77E0EF
:1015700080E090E00E94040245EE60E3CE01019617
:101580000E94370264E670E080E090E00E94AA03C7
:101590006C597F4F8F4F9F4F0E94040261E0CE0134
:1015A00001960E949702CE0101960E94B70260E95F
:1015B00071E080E090E00E94AA03645D7E4F8F4F4F
:1015C0009F4F0E94040241E163E4CE0101960E9414
:1015D000370264E670E080E090E00E94040261E07F
:1015E000CE0101960E94970240E068E0CE0101968C
:1015F0000E94370264E670E080E090E00E940402FE
:1016000061E0CE0101960E94970260E27EE480E0F4
:1016100090E00E940402CE0101960E94B70260E9A8
:1016200071E080E090E00E94AA03645D7E4F8F4FDE
:101630009F4F0E9404024EE26FE6CE0101960E9487
:10164000370262EE74E080E090E00E94040261E004
:10165000CE0101960E94970264EF71E080E090E075
:101660000E94040242EE62EECE0101960E94370211
:1016700028960FB6F894DEBF0FBECDBFDF91CF9195
:101680000895FF920F931F93CF93DF93CDB7DEB7EB
:1016900028970FB6F894DEBF0FBECDBF8C01CE01E8
:1016A00001960E94A003CE0101960E94B7024BE072
:1016B0006EE6CE0101960E94370268EC70E080E091
:1016C00090E00E94AA036C507E4F8F4F9F4F0E9464
:1016D000040261E0CE0101960E94970261E0CE0112
:1016E00001960E94970260ED77E080E090E00E9412
:1016F000040247E061EACE0101960E94370268ECDD
:1017000070E080E090E00E94AA036C507E4F8F4F03
:101710009F4F0E94040261E0CE0101960E94970251
:1017200068EC70E080E090E00E94AA036C507E4F6D
:101730008F4F9F4F0E940402402F440F400F4C5F79
:1017400060E0CE0101960E94370268EC70E080E014
:1017500090E00E94AA036C507E4F8F4F9F4F0E94D3
:10176000040261E0CE0101960E94970260E971E0F7
:1017700080E090E00E94AA03645D7E4F8F4F9F4FF0
:101780000E940402802F880F880FF02EF81A47E27B
:101790004F0D6FE5CE0101960E94370260E971E0BE
:1017A00080E090E00E94AA03645D7E4F8F4F9F4FC0
:1017B0000E94040261E0CE0101960E94970260E956
:1017C00071E080E090E00E94AA03645D7E4F8F4F3D
:1017D0009F4F0E94040249EE60EDCE0101960E94E7
:1017E000370260E971E080E090E00E94AA03645D46
:1017F0007E4F8F4F9F4F0E94040261E0CE01019601
:101800000E9497026CED75E080E090E00E94040277
:1018100045EE60E3CE0101960E94370264E670E077
:1018200080E090E00E94AA036C597F4F8F4F9F4F3A
:101830000E94040261E0CE0101960E94970249E1F4
:101840006DE9CE0101960E94370264E670E080E007
:1018500090E00E94AA036C597F4F8F4F9F4F0E94C8
:10186000040261E0CE0101960E9497020F5F1F4FB4
:10187000402F440F400F64E0CE0101960E943702D2
:1018800064E670E080E090E00E94AA036C597F4F0C
:101890008F4F9F4F0E94040261E0CE0101960E948B
:1018A000970268EE73E080E090E00E94AA0368511E
:1018B0007C4F8F4F9F4F0E94040261E0CE01019642
:1018C0000E9497024CEF4F0D62E3CE0101960E94F9
:1018D000370264E670E080E090E00E94AA036C5951
:1018E0007F4F8F4F9F4F0E94040261E0CE0101960F
:1018F0000E94970228960FB6F894DEBF0FBECDBFA8
:10190000DF91CF911F910F91FF9008951F920F9239
:101910000FB60F9211242F933F934F935F936F93C2
:101920007F938F939F93AF93BF93EF93FF9387E240
:1019300091E00E943F01FF91EF91BF91AF919F9184
:101940008F917F916F915F914F913F912F910F9068
:101950000FBE0F901F9018951F920F920FB60F9207
:1019600011242F938F939F93EF93FF93E09137016F
:10197000F09138018081E0913D01F0913E0182FDBE
:101980001BC09081809140018F5F8F732091410136
:10199000821741F0E0914001F0E0E95DFE4F958F44
:1019A00080934001FF91EF919F918F912F910F9024
:1019B0000FBE0F901F9018958081F4CF1F920F9249
:1019C0000FB60F9211242F933F938F939F93AF9352
:1019D000BF9380911B0190911C01A0911D01B091BA
:1019E0001E013091160123E0230F2D3758F5019683
:1019F000A11DB11D2093160180931B0190931C0122
:101A0000A0931D01B0931E018091170190911801C0
:101A1000A0911901B0911A010196A11DB11D8093E9
:101A2000170190931801A0931901B0931A01BF9167
:101A3000AF919F918F913F912F910F900FBE0F907B
:101A40001F90189526E8230F0296A11DB11DD2CF35
:101A5000CF93DF93E7E2F1E01382128288EE93E006
:101A6000A0E0B0E084839583A683B78388E091E00B
:101A70009183808385EC90E09587848784EC90E067
:101A80009787868780EC90E0918B808B81EC90E04B
:101A9000938B828B82EC90E0958B848B86EC90E02C
:101AA000978B868B118E128E138E148EE4E0F2E0EB
:101AB000108281E0818321E43BE03383228315821D
:101AC00014823783268361E070E0718760873387F3
:101AD000228742E050E05587448715A614A6378731
:101AE0002687118A108A338B228B758B648B378BF8
:101AF000268B518F408F26E030E033A722A786A7A0
:101B000087A780AB81AB82AB83ABECECF1E01082BA
:101B10008183CBEAD5E0D383C28315821482A3E507
:101B2000B7E0B783A683718760878AE499E09387DB
:101B300082875587448715A614A6D787C687118A3A
:101B4000108AB38BA28B758B648B978B868B518F8E
:101B5000408F33A722A716A617A610AA11AA12AA69
:101B600013AA84EC91E0DF91CF910C94A0037894B8
:101B700084B5826084BD84B5816084BD85B5826092
:101B800085BD85B5816085BD80916E008160809343
:101B90006E001092810080918100826080938100AC
:101BA00080918100816080938100809180008160BC
:101BB000809380008091B10084608093B100809117
:101BC000B00081608093B00080917A00846080933F
:101BD0007A0080917A00826080937A0080917A0006
:101BE000816080937A0080917A00806880937A0087
:101BF0001092C100E0913701F091380182E08083BA
:101C0000E0913301F09134011082E0913501F091BF
:101C100036018FEC808310923F01E0913B01F091FF
:101C20003C0186E08083E0913901F0913A018081A6
:101C300080618083E0913901F0913A018081886070
:101C40008083E0913901F0913A018081806880833E
:101C5000E0913901F0913A0180818F7D808368EBBA
:101C60007BE080E090E00E94040210921F0110923D
:101C70002001109221011092220104E610E020E2DE
:101C8000E22E2EE4F22E80E00E94CE013C0181E0A3
:101C90000E94CE012C0182E00E94CE011C0183E053
:101CA0000E94CE014C0184E00E94CE016C0185E0CF
:101CB0000E94CE015C01E1EAF0E09491EDE8F0E0F1
:101CC0008491E9E7F0E02491D0E0C0E02223E9F03C
:101CD000992359F0933009F46CC108F05FC1913039
:101CE00009F46DC1923009F46EC1E22FF0E0EE0FFD
:101CF000FF1FE859FF4FA591B4919C91892321E0E2
:101D000090E009F420E0C22FD92F80912501909115
:101D10002601843691050CF463C101979093260146
:101D200080932501CD2B49F48091230190912401CA
:101D30000196909324018093230180912301909137
:101D400024010297A1F464E084EC91E00E949702E0
:101D500068EC70E080E090E00E94040264E084ECB3
:101D600091E00E9497021092240110922301F5EF56
:101D70008F16F1E09F06C4F00E947C040E94C40309
:101D80000E94E4026CE474E080E090E00E94AA0308
:101D90006A567F4F8F4F9F4F0E9404026091CD0182
:101DA0008CEC91E00E94680225EFA21621E0B206B9
:101DB000C4F00E947C040E94C4030E94E4026CE40C
:101DC00074E080E090E00E94AA036A567F4F8F4F34
:101DD0009F4F0E9404026091CD018CEC91E00E9423
:101DE000680285EFC81681E0D806C4F00E947C0422
:101DF0000E94C4030E94E4026CE474E080E090E07E
:101E00000E94AA036A567F4F8F4F9F4F0E94040281
:101E10006091CC018CEC91E00E94680295EF69160C
:101E200091E0790634F10E947C040E94C4030E9470
:101E3000E4026CE474E080E090E00E94AA036A5639
:101E40007F4F8F4F9F4F0E9404026091050284E0F4
:101E500092E00E946802E0913002F0913102EC5F62
:101E6000FD4F86A5882309F4EAC0F0922601E0928E
:101E70002501E5EF4E16E1E05E0634F10E947C0498
:101E80000E94C4030E94E4026CE474E080E090E0ED
:101E90000E94AA036A567F4F8F4F9F4F0E940402F1
:101EA0006091050284E092E00E946802E0913002B5
:101EB000F0913102EC5FFD4F86A5882309F4C4C080
:101EC000F0922601E09225018FB7F89480901B01D3
:101ED00090901C01A0901D01B0901E018FBFF5EFE6
:101EE0002F16F1E03F060CF446C080911F0190913F
:101EF0002001A0912101B0912201B501A401481B4C
:101F0000590B6A0B7B0B413C57426940710528F421
:101F1000892B8A2B8B2B09F0A1C00E947C040E9484
:101F2000C4030E94E40264EF71E080E090E00E944C
:101F3000AA0362517D4F8F4F9F4F0E940402609110
:101F4000040284E092E00E94680280921F01909255
:101F50002001A0922101B0922201E0913002F09183
:101F60003102EC5FFD4F86A5882309F472C0F09220
:101F70002601E092250161E070E080E090E00E949F
:101F8000040280E090E0892B09F47DCE0E942B01B1
:101F9000882309F478CE0E94000075CE9730B1F006
:101FA0009830D1F0943009F0A0CE909180009F7DC0
:101FB00003C0909180009F779093800096CE94B557
:101FC0009F7794BD92CE94B59F7DFBCF9091B0004A
:101FD0009F779093B00089CE9091B0009F7DF9CF0C
:101FE000892B09F49FCE84EC91E00E94B70268EE41
:101FF00073E080E090E00E9404024EE26FE684EC21
:1020000091E00E94370262EE74E080E090E00E946E
:10201000040261E084EC91E00E94970264EF71E0B9
:1020200080E090E00E94040242EE62EE84EC91E0D7
:102030000E943702109226011092250173CE109350
:1020400026010093250115CF109326010093250149
:102050003BCF10932601009325018DCF0E947C0475
:102060000E94C40380921F0190922001A09221013E
:10207000B092220110922601109225017CCF8F92FE
:102080009F92AF92BF92CF92DF92EF92FF92CF9347
:10209000DF93EC01688179818A819B8161157105EB
:1020A0008105910521F464E279ED8BE597E02DE15E
:1020B00033EF41E050E00E94E31049015A019B01D7
:1020C000AC01A7EAB1E40E9402116B017C01ACEE05
:1020D000B4EFA50194010E941011C60ED71EE81E90
:1020E000F91EF7FE06C081E0C81AD108E10880E8B1
:1020F000F80AC882D982EA82FB82C701B6019F77BB
:10210000DF91CF91FF90EF90DF90CF90BF90AF9095
:102110009F908F9008958F929F92AF92BF92CF928F
:10212000DF92EF92FF926091000170910101809126
:10213000020190910301611571058105910521F45A
:1021400064E279ED8BE597E02DE133EF41E050E07B
:102150000E94E31049015A019B01AC01A7EAB1E4D6
:102160000E9402116B017C01ACEEB4EFA501940159
:102170000E941011C60ED71EE81EF91EF7FE06C0FB
:1021800081E0C81AD108E10880E8F80AC09200018D
:10219000D0920101E0920201F0920301C701B60161
:1021A0009F77FF90EF90DF90CF90BF90AF909F9080
:1021B0008F90089560930001709301018093020154
:1021C000909303010895052E97FB1EF400940E943E
:1021D000FA1057FD07D00E94151107FC03D04EF4EA
:1021E0000C94FA1050954095309521953F4F4F4FE4
:1021F0005F4F089590958095709561957F4F8F4FB3
:102200009F4F08950E943711A59F900DB49F900D88
:10221000A49F800D911D11240895B7FF0C94021105
:102220000E940211821B930B0895A1E21A2EAA1B91
:10223000BB1BFD010DC0AA1FBB1FEE1FFF1FA21776
:10224000B307E407F50720F0A21BB30BE40BF50B73
:10225000661F771F881F991F1A9469F760957095FC
:10226000809590959B01AC01BD01CF010895A29F7F
:10227000B001B39FC001A39F700D811D1124911D5A
:10228000B29F700D811D1124911D0895EE0FFF1F47
:102290000590F491E02D0994F894FFCF010000001F
:1022A0000000000061018200EE00AE011F01FD0090
:0222B00011011A
:107E0000112484B714BE81FFF0D085E080938100F7
:107E100082E08093C00088E18093C10086E0809377
:107E2000C20080E18093C4008EE0C9D0259A86E02C
:107E300020E33CEF91E0309385002093840096BBD3
:107E4000B09BFECF1D9AA8958150A9F7CC24DD24C4
:107E500088248394B5E0AB2EA1E19A2EF3E0BF2EE7
:107E6000A2D0813461F49FD0082FAFD0023811F036
:107E7000013811F484E001C083E08DD089C08234E0
:107E800011F484E103C0853419F485E0A6D080C0E4
:107E9000853579F488D0E82EFF2485D0082F10E0AE
:107EA000102F00270E291F29000F111F8ED06801E7
:107EB0006FC0863521F484E090D080E0DECF843638
:107EC00009F040C070D06FD0082F6DD080E0C81688
:107ED00080E7D80618F4F601B7BEE895C0E0D1E017
:107EE00062D089930C17E1F7F0E0CF16F0E7DF06D8
:107EF00018F0F601B7BEE89568D007B600FCFDCFD4
:107F0000A601A0E0B1E02C9130E011968C91119780
:107F100090E0982F8827822B932B1296FA010C0160
:107F200087BEE89511244E5F5F4FF1E0A038BF0790
:107F300051F7F601A7BEE89507B600FCFDCF97BE46
:107F4000E89526C08437B1F42ED02DD0F82E2BD052
:107F50003CD0F601EF2C8F010F5F1F4F84911BD097
:107F6000EA94F801C1F70894C11CD11CFA94CF0C13
:107F7000D11C0EC0853739F428D08EE10CD085E9AC
:107F80000AD08FE07ACF813511F488E018D01DD067
:107F900080E101D065CF982F8091C00085FFFCCF94
:107FA0009093C60008958091C00087FFFCCF809118
:107FB000C00084FD01C0A8958091C6000895E0E648
:107FC000F0E098E1908380830895EDDF803219F02E
:107FD00088E0F5DFFFCF84E1DECF1F93182FE3DFCA
:107FE0001150E9F7F2DF1F91089580E0E8DFEE27F6
:047FF000FF270994CA
:027FFE00040479
:00000001FF
